:100000000C94EE000C94CD0D0C94F40D0C94160190
:100010000C9416010C9416010C9416010C94160104
:100020000C9416010C9416010C9416010C941601F4
:100030000C9416010C9416010C9416010C941601E4
:100040000C94700C0C9416010C94D0130C940214A4
:100050000C9416010C9416010C9416010C941601C4
:100060000C9416010C9416017110F10FF50FF90F95
:10007000FD0F0110041007100B100E1012101510B8
:1000800019101C1075102B102F108F1033105410D6
:1000900037105C105F103A1066103E10411044108B
:1000A0007910541058105C105F10621066106A10BE
:1000B0006E100000000800020100000304070000A9
:1000C000000000000000010204081020408001022E
:1000D000040810200102040810200404040404048D
:1000E00004040202020202020303030303030000EA
:1000F0000000230026002900000000002500280041
:100100002B0000000000240027002A0052657475AF
:10011000726E696E6720746F2050726576696F75B4
:1001200073204D6F6465204661696C7572652E2E73
:100130002E006053657474696E67204944204D6FCA
:100140006465204661696C7572652E2E2E005365BC
:100150007474696E672042617564726174652053BE
:1001600075636365737366756C2100536574746998
:100170006E67204261756472617465204661696CC6
:100180007572652E2E2E00456E746572696E67203D
:10019000436F6E66696775726174696F6E204D6F2B
:1001A0006465205375636365737366756C210045E0
:1001B0006E746572696E6720436F6E6669677572EB
:1001C0006174696F6E204D6F6465204661696C755E
:1001D00072652E2E2E00A10BC70D281411241FBEF0
:1001E000CFEFD8E0DEBFCDBF12E0A0E0B1E0E2E1AA
:1001F000FFE202C005900D92A439B107D9F725E0BE
:10020000A4E9B2E001C01D92AA3EB207E1F710E0F6
:10021000CEEED0E004C02197FE010E948117CB3EB4
:10022000D107C9F70E94B80D0C94BE150C940000BC
:10023000E2E10E94BD010895E9E00E94BD01089538
:10024000EAE00E94BD010895E1E00E94BD01089529
:10025000E3E00E94BD010895E7E00E94BD0108951A
:10026000E5E00E94BD010895E0E00E94BD0108950F
:10027000E2E00E94BD010895E4E00E94BD010895FE
:10028000ECE00E94BD010895E8E00E94BD010895E0
:10029000EEE00E94BD010895E4E10E94BD010895D1
:1002A000E0E10E94BD010895E7E10E94BD010895CB
:1002B000E6E00E94BD010895EBE00E94BD010895B3
:1002C000EDE00E94BD010895EFE00E94BD01089598
:1002D000E1E10E94BD010895E3E10E94BD0108959E
:1002E000E5E10E94BD010895E6E10E94BD01089587
:1002F00021968A929A92AA92BA92CA92DA92EA9233
:10030000FA920A931A932197E0917101F091720188
:100310000080F181E02DC083D1830895C0917301E5
:10032000D0917401E881F981C081D1812196199120
:100330000991F990E990D990C990B990A9909990B4
:100340008990219708952F903F90E7E6F1E0CDB78F
:10035000DEB7EDBFFEBF3F922F9208952F903F90E2
:10036000CDBFDEBF3F922F920895E0E80E94BD010D
:100370000895E0E40E94BD0108952F923F924F92AC
:100380005F926F927F922FB62F92CF93DF937E2E44
:10039000F894E0910001EF5FE0930001E13011F487
:1003A0000E94A301E0E0E0938101E72DE07849F0AD
:1003B0000E940C06F0918201F17071F00E94C40459
:1003C0000BC0E72DEC3140F4EE0FF0E0EE5BFD4F9B
:1003D0000190F081E02D0995F0918101EF2FE170FE
:1003E00059F0F27011F00E9478018F938F2F0E94C4
:1003F0000C048F910E948E012091000121502093C6
:100400000001222311F40E94AE01DF91CF912F90C1
:100410002FBE7F906F905F904F903F902F900895E8
:10042000CF92DF92EF92FF920F931F93DC01EC913A
:10043000DB012C918E2F8170C82ED12CE12CF12C58
:100440008E2F877090E0A0E0B0E0B695A7959795C5
:100450008795DC01A952BD4F8C91C81AD108E108DB
:10046000F108E670422F417050E060E070E0822FAA
:10047000877090E0A0E0B0E0B695A7959795879536
:10048000DC01A952BD4F8C91481B510961097109CA
:10049000822F86709701860101701127222733274A
:1004A0000E2B4170552766277727482B81E090E077
:1004B000041715072607370710F080E090E01F911A
:1004C0000F91FF90EF90DF90CF9008958F929F92C1
:1004D000AF92BF92EF92FF920F931F93CF93DF9350
:1004E0007C014A015B01B694A794979487944230AB
:1004F000510561057105E0F0440F551F8701040F98
:10050000151FE401CC0FDD1FCE0DDF1DB801CE019C
:100510000E941002892B61F0F8019081818128816D
:1005200039813183208398838983B501A401DBCF8E
:10053000DF91CF911F910F91FF90EF90BF90AF90FF
:100540009F908F9008954F925F926F927F928F92BB
:100550009F92AF92BF92CF92DF92EF92FF920F9352
:100560001F93CF93DF9300D000D000D0CDB7DEB77C
:100570008C016A017B01DC018C91282F30E040E086
:1005800050E029833A834B835C8346015701880CF2
:10059000991CAA1CBB1C29813A814B815C812815BE
:1005A00039054A055B0508F442C0240135013FEFD7
:1005B000431A530A630A730A89819A81AB81BC8109
:1005C00084159505A605B70580F0B201660F771F63
:1005D000600F711FC401880F991F800F911F0E9427
:1005E0001002892B11F0530142013401660C771C73
:1005F000600E711ECC0CDD1CD801AC0DBD1DBE8380
:10060000AD83B301CD010E941002892B81F0ED81F1
:10061000FE8190818181D3012D913C91119731838D
:1006200020839C9311968C9375016401AECF26961E
:100630000FB6F894DEBF0FBECDBFDF91CF911F91F3
:100640000F91FF90EF90DF90CF90BF90AF909F9071
:100650008F907F906F905F904F900895EEE8F4E058
:1006600040814F5F408350E060E070E0E82FEE0F84
:10067000FF0BE55FFD4F0190F081E02D238530E019
:10068000F901E952FD4F908191509083FA01EE0FEC
:10069000FF1FE257FB4F220F331F9170292B20833E
:1006A00081838EE894E00C946602EEE8F4E04081E9
:1006B0004F5F408350E060E070E0E82FEE0FFF0BEB
:1006C000EB5FFD4F0190F081E02D9381FA01EE0F79
:1006D000FF1FE257FB4F908381838EE894E00C94D8
:1006E0006602CF93DF93EEE8F4E080819FEF980FEE
:1006F0009083D281C38190E0880F991FDC01A257BB
:10070000BB4F8D919C919383828341E050E060E0E8
:1007100070E0CF010E94A3028D2F9C2FDF91CF911B
:1007200008958091790190917A01A0917B01B09117
:100730007C018F3F2FEF9207A207B20731F002979B
:10074000A105B10524F481E0089580E0089582E0D8
:100750000895880F990BFC01E55FFD4F0190F08132
:10076000E02D0084F185E02D3097E9F02281211100
:100770001AC021E02283DC01AB5FBD4F0D90BC911C
:10078000A02D13968C9113978183808190E0FC01BA
:10079000E952FD4F208121502083880F991F21703D
:1007A000822B13968C930895880F990BFC01E55FBB
:1007B000FD4F0190F081E02D0084F185E02D309710
:1007C00061F02281213049F412822181FC01EB5F2A
:1007D000FD4F0190F081E02D2383089580917D01EC
:1007E00090917E01A0917F01B091800140917901AB
:1007F00050917A0160917B0170917C0148175907F3
:100800006A077B0741F0E0917701F091780121E0E0
:1008100024830C9455030895CF93DF93882391F09C
:10082000C0917101D0917201E0917501F091760152
:100830008481833049F081E08483809179010E9432
:10084000550302C0C0E0D0E0E0917701F09178015B
:10085000F0937601E093750180917301909174019A
:10086000909372018093710180917D0130917E019E
:1008700020917F01909180018093790130937A01DA
:1008800020937B0190937C0192E094830E94A903C2
:10089000CE01DF91CF910895809179010E94D40318
:1008A000E0917501F09176018281882319F085E04D
:1008B0008483089514820895CF93DF93282F220F05
:1008C000330BF901EB5FFD4FC081D1819A81F901B2
:1008D000E55FFD4F0190F081E02D2485921770F4C3
:1008E000911105C095E09C8391E0909382010E9454
:1008F0002E038A818F5F8A8380E001C084E0DF91CC
:10090000CF910895E82FEE0FFF0BEB5FFD4F0190A5
:10091000F081E02D118210820C94720D1F93CF9301
:10092000DF930E947103182F892F492F092E000C85
:10093000550B660B770B40937D0150937E016093BE
:100940007F0170938001292F220F330BF901EB5F98
:10095000FD4FC081D181D0937801C0937701F90117
:10096000E55FFD4F20813181309374012093730145
:100970009C81953019F40E9482041B83109282019D
:10098000DF91CF911F910895E0917D01F0917E015B
:10099000EE0FFF1FEB5FFD4F0190F081E02D909176
:1009A00090048381891730F40E94EE030E948E0424
:1009B00083E001C080E080938101089581E080930D
:1009C00081010C948E04CF93DF93C1E0D0E001C08D
:1009D000CC0F8A95EAF782E00E945C0480913F0286
:1009E0008C2319F080E00E945C04809140028C23EB
:1009F00019F081E00E945C0480913D028C2349F053
:100A00008091EF019091F00121E0FC0126870E9486
:100A1000450580913E02C82359F08091F1019091E3
:100A2000F20121E0FC012687DF91CF910C9445056E
:100A3000DF91CF9108950E94F30681110E9414075F
:100A4000E0917501F091760180819181892B21F0EF
:100A5000809179010E94DB080C943C080E94F30607
:100A600081110E941407E0917501F0917601808157
:100A70009181892B21F0809179010E94DB080C94EF
:100A8000240881E0809394020895AF92BF92CF92A0
:100A9000DF92EF92FF920F931F93CF93DF93FC01AE
:100AA000A081B181AD90BC90E501AC89BD89109762
:100AB00039F0428553856485758530E020E017C0A4
:100AC000D50155969C938E93549757969C938E93ED
:100AD000569715821482138212825BC012968D91F2
:100AE0009C9113973A2F2B2F009779F0DC011A96DF
:100AF000CD90DD90ED90FC901D974C155D056E0539
:100B00007F0560F7CD01A32FB22F93838283B58336
:100B1000A483009719F0EC01FD83EC83109729F072
:100B20001396FC93EE93129705C0D5015596FC934E
:100B3000EE935497E501AE89BF891A968D919D91E8
:100B40000D90BC91A02D088919892A893B898017AD
:100B50009107A207B30780F4041715072607370784
:100B600028F0481759076A077B0798F4D50157966C
:100B7000FC93EE9356970DC0041715072607370709
:100B800040F4481759076A077B0718F4E501FF8B03
:100B9000EE8BDF91CF911F910F91FF90EF90DF903F
:100BA000CF90BF90AF900895CF93DF93DC01ED918C
:100BB000FC9111970190F081E02D8489958912961E
:100BC000CD91DC911397A817B90711F4D58BC48B7D
:100BD00086899789A817B90711F4D78BC68B2097F8
:100BE00031F014968D919C9115979D838C8314966A
:100BF0000D90BC91A02D109721F01396DC93CE930D
:100C0000129786899789892B21F484899589978BF6
:100C1000868BDF91CF910895EF92FF920F931F93F0
:100C2000CF93DF93FC0180919402882309F4B5C02F
:100C300084859585A685B7850196A11DB11D8487FC
:100C40009587A687B7874081518162817381841718
:100C50009507A607B70709F0A0C0408951896289A6
:100C600073894F5F5F4F6F4F7F4F84819581A6815E
:100C7000B78184179507A607B70718F440E050E03E
:100C8000BA01408B518B628B738B14861586168646
:100C90001786C689D789209709F47FC08A859B85E6
:100CA000AC85BD85481759076A077B0709F075C0F1
:100CB000CE01DC011296ED90FC901397E114F10443
:100CC00071F0D7011A960D911D912D913C911D97B0
:100CD000401751076207730711F4C701EACF2C814F
:100CE0003D812115310529F0D9011396FC92EE9230
:100CF0001297E114F10429F0D70115963C932E9335
:100D0000149724893589C217D30711F4F58AE48A28
:100D1000E114F10419F0F78AE68A04C024893589C0
:100D2000378B268B8F01FC0113821282EA80FB80B5
:100D3000E881F9810280F381E02DCE0109954E8191
:100D40005F8168857985411551056105710509F156
:100D50008A859B85AC85BD85840F951FA61FB71F0F
:100D6000F8014481558166817781481759076A07E0
:100D70007B0738F4841B950BA60BB70B0197A109D1
:100D8000B1098A879B87AC87BD87CE010E94450544
:100D900001C01E86E701209749F6DF91CF911F9190
:100DA0000F91FF90EF900895FC0182810C945C04F8
:100DB0000E94F306809168010895809368010E9463
:100DC000E3040E9441050C94DE040C94710DCF9352
:100DD000C82F0E949103811102C00E94AE0D8C2F7A
:100DE000CF910C941C018091A1028130D9F08091A7
:100DF000990290919A02A0919B02B0919C02892B3A
:100E00008A2B8B2B79F481E040919D0250919E02B8
:100E100060919F027091A002452B462B472B19F43D
:100E200080E0089581E008951092A10210929D0241
:100E300010929E0210929F021092A00210929902AC
:100E400010929A0210929B0210929C02809195023D
:100E500090919602A0919702B09198028093A2027D
:100E60009093A302A093A402B093A50208950E94B8
:100E7000B10D8091A2029091A302A091A402B09121
:100E8000A5020196A11DB11D8093A2029093A30219
:100E9000A093A402B093A50280919D0290919E021E
:100EA000A0919F02B091A0020196A11DB11D809357
:100EB0009D0290939E02A0939F02B093A00208957A
:100EC00080919D0290919E02A0919F02B091A002FC
:100ED0000097A105B10569F14091A2025091A302CA
:100EE0006091A4027091A5024150510961097109F4
:100EF0004093A2025093A3026093A4027093A502B0
:100F00000197A109B10980939D0290939E02A0933D
:100F10009F02B093A0028091A2029091A302A0919F
:100F2000A402B091A502892B8A2B8B2B11F40C946F
:100F3000AF0D089580919D0290919E02A0919F0215
:100F4000B091A002892B8A2B8B2B89F48091990276
:100F500090919A02A0919B02B0919C02892B8A2BBE
:100F60008B2B29F40E94B10D81E08093A10208959A
:100F70008091A102882321F01092A1020C94AF0D60
:100F800008950E94B50D8091A2029091A302A091B4
:100F9000A402B091A5020196A11DB11D8093A202E9
:100FA0009093A302A093A402B093A502809199020A
:100FB00090919A02A0919B02B0919C020196A11D72
:100FC000B11D8093990290939A02A0939B02B093D3
:100FD0009C0208958091990290919A02A0919B029F
:100FE000B0919C020097A105B10569F14091A20260
:100FF0005091A3026091A4027091A5024150510941
:10100000610971094093A2025093A3026093A40264
:101010007093A5020197A109B10980939902909359
:101020009A02A0939B02B0939C028091A20290919D
:10103000A302A091A402B091A502892B8A2B8B2B2D
:1010400011F40C94B30D08950E94F306882311F057
:1010500083E1089580E00895CF93C82F0E94F3069E
:101060008C2F0E945C04C82F8091820181110E9404
:10107000C4048C2FCF910895CF930E94F306882348
:1010800011F0C3E101C0C0E0E0917501F09176017B
:101090008281815082830E944C0481E0809381018F
:1010A0000E948E048C2FCF910895CF93C82F0E9459
:1010B000F306E0917501F09176018281815082837F
:1010C0008C2F0E945C04C82F811108C00E944C0420
:1010D00081E0809381010E948E0407C0E091750138
:1010E000F091760182818F5F82838C2FCF9108955A
:1010F000CF930E94F306882311F0C3E101C0C0E042
:10110000809179010E94D4030E94C40480917901E6
:1011100090917A01A0917B01B0917C0140917D0179
:1011200050917E0160917F01709180018417950735
:10113000A607B70711F40E94A9038C2FCF91089539
:10114000CF93DF93EC010E94F306882311F083E133
:1011500001C080E04091790150917A0160917B015A
:1011600070917C01423051056105710514F448838A
:1011700003C09091CC019883DF91CF9108950F9394
:101180001F93CF93C82F8B010E94F306882311F081
:1011900083E101C080E0EC2FEE0FFF0BEB5FFD4F12
:1011A0000190F081E02D94819370F8019083CF91AC
:1011B0001F910F910895880F990BFC01EB5FFD4F74
:1011C000A081B181ED91FC911197309769F01D924A
:1011D0001C922091CC0193818481228314821382FA
:1011E000E92FF82F3097B9F70895CF93C82F0E94B1
:1011F000F306882311F083E101C080E0EC2FF0E0DA
:10120000EE0FFF1FE55CFD4FA081B1819091790148
:1012100012969C931297E0917501F09176012081CE
:10122000318114963C932E931397B183A0839381BD
:1012300011969C9311972C9193819695921760F437
:1012400030E0D901A952BD4F9C9191509C93220F3F
:10125000331F9170292B2383CF910895CF93DF9370
:10126000C82F0E94F306882311F0D3E101C0D0E01B
:10127000EC2FF0E0EE0FFF1FE55CFD4F0190F081D9
:10128000E02DA0917501B0917601818113968C9328
:101290001397838194818D939C9314821382809100
:1012A000CC0182830E94C4048D2FDF91CF910895D9
:1012B000DC01ED91FC9184819581DC01ED91FC9143
:1012C00009941F93CF93DF93182FEB010E94F3062D
:1012D000882311F083E101C080E0E12FF0E0EE0F00
:1012E000FF1FE151FE4F0190F081E02D0190F08150
:1012F000E02D0190F081E02D408151816281738168
:101300004C835D836E837F834481558166817781C1
:10131000488359836A837B834085518562857385C1
:10132000488759876A877B87DF91CF911F910895FE
:101330008F929F92AF92BF92CF92DF92EF92FF92E5
:101340000F931F93CF93C82F8B010E94F30688231E
:1013500011F083E101C080E0EC2FF0E0EE0FFF1F01
:10136000E151FE4F0190F081E02D9685913029F5F5
:1013700042855385648575850190F081E02D01904B
:10138000F081E02DC088D188E288F3884C155D0596
:101390006E057F0540F484809580A680B780480D57
:1013A000591D6A1D7B1D4C195D096E097F09F801E5
:1013B000408351836283738301C085E0CF911F9185
:1013C0000F91FF90EF90DF90CF90BF90AF909F90E4
:1013D0008F9008958F929F92AF92BF92CF92DF929B
:1013E000EF92FF920F931F93CF93DF93D82F4A0171
:1013F0005B01680179010E94F306882311F0C3E1C3
:1014000001C0C0E0ED2FF0E0EE0FFF1FE151FE4FF5
:101410000190F081E02D8685811130C0A081B181DD
:101420000D90BC91A02D50964D915D916D917C9148
:101430005397480D591D6A1D7B1D14968D919D91E2
:101440000D90BC91A02D84179507A607B70740F40F
:10145000481B590B6A0B7B0B4150510961097109FB
:101460004287538764877587C682D782E086F18674
:1014700081E08687CF010E94450501C0C7E08C2F1F
:10148000DF91CF911F910F91FF90EF90DF90CF9060
:10149000BF90AF909F908F9008958F929F92AF9240
:1014A000BF92CF92DF92EF92FF920F931F93CF9351
:1014B000DF93C82F4A015B01680179010E94F3069E
:1014C000882311F0D3E101C0D0E0EC2FF0E0EE0F63
:1014D000FF1FE151FE4F0190F081E02D86858111C3
:1014E0000EC082869386A486B586C682D782E086A1
:1014F000F18681E08687CF010E94450501C0D7E0D3
:101500008D2FDF91CF911F910F91FF90EF90DF9082
:10151000CF90BF90AF909F908F9008950F931F939F
:10152000CF93DF93C82F0E94F306882311F0D3E1F5
:1015300001C0D0E0EC2FF0E0EE0FFF1FE151FE4FB5
:1015400000811181F8018685813031F4C8010E9443
:10155000D405F801168601C0D5E08D2FDF91CF911B
:101560001F910F91089526E040E052EC61E070E099
:101570008AEE92E00E94231522E04DE063E086EAC5
:1015800092E00E945E12882339F068EC70E080E0FF
:1015900090E00E94F90CF0CF6DEC71E08AEE92E0E1
:1015A0000E94611360E086EA92E00C94CF0FCF9224
:1015B000DF92EF92FF9282E00E94470C892B09F0A4
:1015C00094C02EEB32E046EC52E06AEB72E086EA21
:1015D00092E00E949A12C090BA02D090BB02E090B2
:1015E000BC02F090BD02D701C60183709570A07F48
:1015F000B87183309540A04FB84189F44091C10241
:1016000020916F0130917001429FC001439F900D66
:1016100011248D579F4F9093D2028093D102D7010E
:10162000C60188279470A07FBC7081159440A04F9C
:10163000BC4031F56091C1027091C20276276727E4
:1016400076277093CC026093CB02072E000C880B98
:10165000990B0E94661620916B0130916C014091AC
:101660006D0150916E010E94F21620E030E0A90158
:101670000E94C2150E942E167093D4026093D3026A
:10168000CC2481EFD822E894E0F888E1F822C11454
:1016900021EFD2062EEFE20628E1F20631F5609145
:1016A000BF027091C0027627672776277093CA021F
:1016B0006093C902072E000C880B990B0E946616D6
:1016C0002091CD023091CE024091CF025091D002B4
:1016D0000E94F21620E030E0A9010E94C2150E948B
:1016E0002E167093D6026093D502FF90EF90DF9094
:1016F000CF900895CF93DF9366EE71E08AEE92E08B
:101700000E944913CEEBD2E08091C60290E09E0188
:101710002E5B32402817390774F4699140E150E09C
:101720008AEE92E00E94C9136DEE71E08AEE92E0BB
:101730000E944913E9CF8AEE92E0DF91CF910C9499
:101740004B138091690190916A019093C802809334
:10175000C7026AE086EA92E00C944B128BEA91E0B1
:101760000C94B5010895833081F028F4813099F00C
:101770008230A1F008958730A9F08830B9F0843024
:10178000D1F4809180008F7D03C0809180008F779D
:1017900080938000089584B58F7702C084B58F7DD3
:1017A00084BD08958091B0008F7703C08091B00010
:1017B0008F7D8093B0000895CF93DF9390E0FC017C
:1017C000EA53FF4F2491FC01E652FF4F8491882396
:1017D00061F190E0880F991FFC01EE5FFE4FC5910B
:1017E000D491FC01E850FF4FA591B491611109C05B
:1017F0009FB7F8948881209582238883EC912E23CB
:101800000BC0623061F49FB7F8948881322F309515
:1018100083238883EC912E2B2C939FBF06C08FB718
:10182000F894E8812E2B28838FBFDF91CF91089504
:101830001F93CF93DF93282F30E0F901EE54FF4F31
:101840008491F901EA53FF4FD491F901E652FF4F19
:10185000C491CC23C1F0162F81110E94B30BEC2F41
:10186000F0E0EE0FFF1FE850FF4FA591B4919FB736
:10187000F894111104C08C91D095D82302C0EC913A
:10188000DE2BDC939FBFDF91CF911F910895CF9303
:10189000DF93282F30E0F901EE54FF4F8491F901D6
:1018A000EA53FF4FD491F901E652FF4FC491CC2384
:1018B00091F081110E94B30BEC2FF0E0EE0FFF1FAF
:1018C000E251FF4FA591B491EC91ED2381E090E0BE
:1018D00021F480E002C080E090E0DF91CF91089594
:1018E0001F920F920FB60F9211242F933F934F9395
:1018F0005F936F937F938F939F93AF93BF93EF9378
:10190000FF938091E1029091E202A091E302B091F5
:10191000E4023091E00223E0230F2D3720F40196FA
:10192000A11DB11D05C026E8230F0296A11DB11D02
:101930002093E0028093E1029093E202A093E302FD
:10194000B093E4028091E5029091E602A091E70253
:10195000B091E8020196A11DB11D8093E50290931C
:10196000E602A093E702B093E8020E94AE0BFF915B
:10197000EF91BF91AF919F918F917F916F915F9107
:101980004F913F912F910F900FBE0F901F90189580
:101990002FB7F8946091E1027091E2028091E30226
:1019A0009091E4022FBF08953FB7F8948091E5022B
:1019B0009091E602A091E702B091E80226B5A89BBB
:1019C00005C02F3F19F00196A11DB11D3FBFBA2FD1
:1019D000A92F982F8827820F911DA11DB11DBC0131
:1019E000CD0142E0660F771F881F991F4A95D1F7F6
:1019F00008958F929F92AF92BF92CF92DF92EF9213
:101A0000FF926B017C010E94D40C4B015C01C1145C
:101A1000D104E104F10401F10E946F0D0E94D40C85
:101A2000DC01CB0188199909AA09BB09883E9340BA
:101A3000A105B10560F321E0C21AD108E108F1085F
:101A400088EE880E83E0981EA11CB11CC114D1043D
:101A5000E104F10419F7DBCFFF90EF90DF90CF9016
:101A6000BF90AF909F908F90089584B5826084BDA1
:101A700084B5816084BD85B5826085BD85B5816092
:101A800085BDEEE6F0E0808181608083E1E8F0E0F2
:101A90001082808182608083808181608083E0E821
:101AA000F0E0808181608083E1EBF0E08081846000
:101AB0008083E0EBF0E0808181608083EAE7F0E002
:101AC0008081846080838081826080838081816066
:101AD00080838081806880831092C100089508957A
:101AE000FFCFFFCFCF93DF93880F990BFC01E55F0A
:101AF000FD4FC081D181AC81BD8111978A819B81CD
:101B0000A80FB91F2D85CD010197FD013297223015
:101B100019F42CE331E002C028E531E02C93DC011C
:101B20003C939E818F819083DF018E93CF01079735
:101B30001E928A179B07E1F780E8DF0118978C93C4
:101B4000CF0144971E928A179B07E1F7A881B981BC
:101B50007597ED93FC93DF91CF9108950895789454
:101B60000895F894089578940895F8940895089540
:101B70000E94350D0E94B70D0E94B20B0E94B30A5D
:101B80008091E9020E94E70680E090E0089580914C
:101B900041028093E902089508951F920F920FB6B3
:101BA0000F9211242F933F934F935F936F937F93E3
:101BB0008F939F93AF93BF93EF93FF93E091C801EF
:101BC000F091C9010995FF91EF91BF91AF919F915C
:101BD0008F917F916F915F914F913F912F910F90D6
:101BE0000FBE0F901F9018951F920F920FB60F9275
:101BF00011242F933F934F935F936F937F938F9312
:101C00009F93AF93BF93EF93FF93E091CA01F0913D
:101C1000CB010995FF91EF91BF91AF919F918F916A
:101C20007F916F915F914F913F912F910F900FBED8
:101C30000F901F90189520918903222399F04FB798
:101C4000F89420918903213059F42DB32093870310
:101C50003DB320918803209523232DBB4FBF02C0A5
:101C6000409387038CBD9DBD08958EBD00000DB4CB
:101C700007FEFDCF8EB5089580918903882361F01A
:101C80009FB7F8942091890380918703213019F43C
:101C90008DBB9FBF08958FBF0895CF93DF93EC0155
:101CA00080E591E00E941B0E60E08A890E94180C7A
:101CB00080EC0E94350E61E08A890E94180C0E9417
:101CC0003C0E65E070E080E090E0DF91CF910C94F5
:101CD000F90C1F93CF93DF93EC01162F80E591E071
:101CE0000E941B0E60E08A890E94180C83E00E940B
:101CF000350E812F0E94350E80E00E94350E182F80
:101D000061E08A890E94180C0E943C0E812FDF91AD
:101D1000CF911F910895DF92EF92FF920F931F933F
:101D2000CF93DF938C01C62FD42EE52EF22E80E5C3
:101D300091E00E941B0E60E0F80182890E94180C5D
:101D400083E00E94350E8C2F0E94350ECD2DDE2DA6
:101D5000CE018F0D911D7C01EC16FD0629F080E06F
:101D60000E94350E8993F8CF61E0F80182890E94C4
:101D7000180CDF91CF911F910F91FF90EF90DF90A2
:101D80000C943C0E0F931F93CF93DF93EC01062F1F
:101D9000142F80E591E00E941B0E60E08A890E946A
:101DA000180C82E00E94350E802F0E94350E812F84
:101DB0000E94350E61E08A890E94180CDF91CF9154
:101DC0001F910F910C943C0EDF92EF92FF920F93B4
:101DD0001F93CF93DF938C01C62FD42EE52EF22EC6
:101DE00080E591E00E941B0E60E0F80182890E946C
:101DF000180C82E00E94350E8C2F0E94350ECD2DDE
:101E0000DE2DCE018F0D911D7C01EC16FD0621F01B
:101E100089910E94350EF9CF61E0F80182890E9414
:101E2000180CDF91CF911F910F91FF90EF90DF90F1
:101E30000C943C0EFF920F931F93CF93DF93EC0112
:101E4000F62E042F122F80E591E00E941B0E60E019
:101E50008A890E94180C85E00E94350E8F2D0E9401
:101E6000350E802F0E94350E812F0E94350E61E0C5
:101E70008A890E94180CDF91CF911F910F91FF90DA
:101E80000C943C0E1F93CF93DF93EC0180E591E01F
:101E90000E941B0E60E08A890E94180C80EA0E9452
:101EA000350E80E00E94350E182F61E08A890E946D
:101EB000180C0E943C0E812FDF91CF911F91089545
:101EC000EF92FF920F931F93CF93DF93EC01162FA6
:101ED0000E94C80C062FE12EF12C212F40EE6FE05E
:101EE000CE010E941A0F6EE0CE010E94690E807E24
:101EF00090E08E159F0539F00E94C80C601B693C6C
:101F000060F381E001C080E0DF91CF911F910F91DC
:101F1000FF90EF9008950F931F93CF93DF93EC0101
:101F2000162F6EE00E94690E807E803221F51032FD
:101F300011F16BE2CE010E94690E082F007486FD3C
:101F400006C020E440E46BE2CE010E941A0F20E4B8
:101F500040E46CE2CE010E941A0F60E6CE010E94BE
:101F6000600F811116C0011106C020E040E46BE251
:101F7000CE010E941A0F20E040E46CE2CE010E94E4
:101F80001A0F612FCE01DF91CF911F910F910C9409
:101F9000600F81E0DF91CF911F910F910895FC01B7
:101FA000638B0C948B0FCF92DF92EF92FF920F9383
:101FB0001F93CF93DF93342F3370313009F43FC038
:101FC00008F466C0323009F0AAC0062F10E0F8010C
:101FD0003197EE30F10508F0A2C0EC5CFF4F0C9495
:101FE0008117C4E8D6EF23E987C0C4E8D6EF29E813
:101FF00083C0C3E8D5EE27E87FC0C4E8D6EF25E864
:102000007BC0C4E8D6EF05C0C3E8D5EE02C0C1E886
:10201000D3ED24E871C0C4E8D6EF02C0C3E8D5EE22
:1020200021E86AC0C4E8D6EF02C0C3E8D5EE20E8D4
:1020300063C0C1E8D1ED2AC0C0E8D0EC27C0C62EED
:10204000D12CF6013197EE30F10508F068C0EE5B57
:10205000FF4F0C948117C4E8D6EF27E64DC0C4E8C3
:10206000D6EF23E549C0C3E8D5EE2EE445C0C4E869
:10207000D6EF42C0C3E8D5EE23E43EC0C3E8D5EEB8
:1020800027C0C3E8D5EE28C0C1E8DAEC20E034C0B0
:10209000062F10E0F8013697E930F10508F03FC04F
:1020A000E05BFF4F0C948117C4E8D6EF29E424C00D
:1020B000C7E8DFEF24EC20C0C4E8D6EF05C0C3E8D2
:1020C000D5EE02C0C1E8D3ED24E416C0C4E8D6EFD3
:1020D00021E412C0C4E8D6EF20E40EC0C2E8D9ED76
:1020E000D5CFC4E8D6EF27EA07C0C7E8DFEF2FE374
:1020F00003C0C1E8D3ED28E142FDCF778C01422F28
:102100006AE20E94C20E4D2F69E2C8010E94C20E0F
:102110004C2F68E2C8010E94C20E80E001C081E03D
:10212000DF91CF911F910F91FF90EF90DF90CF90B3
:1021300008950F931F93CF93DF9300D000D0CDB7B6
:10214000DEB7E62FF42FA901662777270C831B83C0
:10215000F13081F4342F3C71242F2370F8E03F9F3D
:10216000200D112428602A8335E0569547953A952D
:10217000E1F70AC0242F2295220F207E2A8323E034
:10218000569547952A95E1F7498324E0AE014F5FC4
:102190005F4F6E2F0E94E40E0F900F900F900F90E4
:1021A000DF91CF911F910F9108950F931F93CF93BC
:1021B000DF93EC0100E010E0980141E060E20E9452
:1021C000991000E010E0980141E064E2CE010E9425
:1021D000991000E010E0980141E060E0CE010E941B
:1021E000991000E010E0980140E064E0CE010E9408
:1021F000991000E010E0980141E068E0CE010E94F3
:10220000991000E010E0980140E060E1CE010E94EA
:10221000991000E010E0980141E064E1CE010E94D5
:10222000991000E010E0980140E068E1CE010E94C2
:10223000991010E340E0612FCE010E94C20E60E1D0
:10224000610F40E0CE010E94C20E60E2610F40E0EB
:10225000CE010E94C20E1F5F1E3361F740E060E6B0
:10226000CE010E94C20E40E060E7CE01DF91CF9127
:102270001F910F910C94C20EEF92FF920F931F9338
:10228000CF93DF93EC01062FF42EE22E0E944D0E29
:1022900080E48B8B60E8CE010E948B0F182F88237F
:1022A00041F06FEA71E08AEE92E00E944F13812FB5
:1022B0005CC067E871E08AEE92E00E944F134E2DF9
:1022C0006F2DCE010E94D30F882339F06BE671E0A9
:1022D0008AEE92E00E944F1347C06EE471E08AEEEE
:1022E00092E00E944F13CE010E94D51043E06BE2B2
:1022F000CE010E94C20E4CE36CE0CE010E94C20EE1
:1023000040E06DE0CE010E94C20E002351F0033088
:1023100019F524E644E660E6CE010E941A0F20E695
:1023200007C024E044E660E6CE010E941A0F20E0D8
:1023300040E660E7CE010E941A0F6B89CE010E9431
:102340008B0FC82F882381F06CE071E08AEE92E059
:102350000E944F138C2F09C062E371E08AEE92E075
:102360000E944F1381E001C080E0DF91CF911F9167
:102370000F91FF90EF900895EF92FF920F931F93AC
:10238000CF93DF9300D000D0CDB7DEB77A018901BB
:10239000FA011082F901108211821282138224E064
:1023A000AE014F5F5F4F0E948B0E2A813981822FD1
:1023B00090E065E0959587956A95E1F7F8E03F9F95
:1023C000800D911D1124092E000CAA0BBB0BF801E6
:1023D00080839183A283B38323FF25C032E0880FDB
:1023E000991FAA1FBB1F3A95D1F72370820F911D29
:1023F000A11DB11DBA2FA92F982F88272B81820FDD
:10240000911DA11DB11DBA2FA92F982F88272C81AE
:10241000820F911DA11DB11D80839183A283B3837F
:1024200081E0F70180830F900F900F900F90DF9164
:10243000CF911F910F91FF90EF9008950F931F93ED
:10244000CF93DF93EC01162F9C012F5F3F4FAC0120
:102450000E94BC116FEF610FCE010E94690E082F20
:1024600064E0610FCE010E94690E8D8303FF03C0FB
:1024700091E09E8701C01E86282F2F702D83AE010C
:102480004A5F5F4F65E0610FCE01DF91CF911F91F1
:102490000F910C948B0ECF93DF93EC01862F6A8BF8
:1024A00061E00E94180C61E08A890E94DC0B8BE8D5
:1024B00093E0998B888BDF91CF910895FF920F93D2
:1024C0001F93CF93DF93EC01162F042FF22E0E945F
:1024D00088152F2D402F612FCE010E943C1191E0D5
:1024E000811101C090E0892FDF91CF911F910F9151
:1024F000FF900895CF93DF93EC010E94420F80FF7D
:1025000007C061E6CE010E941E1220E041E008C033
:1025100081FF0CC061E7CE010E941E1220E042E064
:102520006CE2CE010E941A0F80E001C084E0DF91CE
:10253000CF910895CF92DF92EF92FF920F931F9366
:10254000CF93DF93EC016B017A0189010E947A122B
:10255000843099F18881882349F089819A81AB81FF
:10256000BC81B06889839A83AB83BC838E858823C2
:1025700049F089819A81AB81BC81B06489839A8357
:10258000AB83BC8389819A81AB81BC81F601808356
:102590009183A283B3838D81F7018083DE01169638
:1025A000F8018D8190E09F01201B310B281739071E
:1025B0001CF48D918193F5CF80E0DF91CF911F9135
:1025C0000F91FF90EF90DF90CF900895CF92DF9220
:1025D000EF92FF920F931F93CF93DF936C017A01D9
:1025E0008B01C0E0D0E0CE15DF0581F0D8016D9100
:1025F0008D01D601ED91FC910190F081E02DC60195
:102600000995892B11F02196EECF7E01C701DF914C
:10261000CF911F910F91FF90EF90DF90CF90089591
:102620006115710579F0FB0101900020E9F7319700
:10263000AF01461B570BDC01ED91FC910280F38149
:10264000E02D099480E090E00895EF92FF920F93BF
:102650001F93CF93DF938C017B01C0E0D0E0F701A3
:10266000EC0FFD1F6491662361F0D801ED91FC91A0
:102670000190F081E02DC8010995892B11F0219678
:10268000EECFCE01DF91CF911F910F91FF90EF9090
:1026900008950C94101362E772E00C9410130F93DA
:1026A0001F93CF93DF93EC010E9425138C01CE0181
:1026B0000E944B13800F911FDF91CF911F910F91BB
:1026C00008950F931F93CF93DF93EC010E94101393
:1026D0008C01CE010E944B13800F911FDF91CF918F
:1026E0001F910F9108958F929F92AF92BF92EF9298
:1026F000FF920F931F93CF93DF93CDB7DEB7A197D0
:102700000FB6F894DEBF0FBECDBF7C01FA01CB013E
:1027100019A2223008F42AE08E010F5D1F4F822E8D
:10272000912CA12CB12CBF01A50194010E945F172F
:10273000F901CA01015011096A3014F4605D01C049
:10274000695CD8016C93232B242B252B61F7B801EE
:10275000C7010E941013A1960FB6F894DEBF0FBEFA
:10276000CDBFDF91CF911F910F91FF90EF90BF9060
:10277000AF909F908F9008952115310541F4DC01B1
:10278000ED91FC910190F081E02D642F09940C945F
:1027900073139A01462F50E060E070E00C94BC1374
:1027A0001F920F920FB60F9211242F938F939F9326
:1027B000EF93FF93E091FA02F091FB028081E091A8
:1027C0000003F091010382FD12C090818091030308
:1027D0008F5F8F7320910403821751F0E091030300
:1027E000F0E0E651FD4F958F8093030301C0808197
:1027F000FF91EF919F918F912F910F900FBE0F90AE
:102800001F9018951F920F920FB60F9211242F93BD
:102810003F934F935F936F937F938F939F93AF9368
:10282000BF93EF93FF938AEE92E00E949214FF9180
:10283000EF91BF91AF919F918F917F916F915F9138
:102840004F913F912F910F900FBE0F901F901895B1
:10285000EAEEF2E01382128288EE93E0A0E0B0E0AC
:1028600084839583A683B78385E892E091838083F0
:1028700085EC90E09587848784EC90E09787868745
:1028800080EC90E0918B808B81EC90E0938B828B3D
:1028900082EC90E0958B848B86EC90E0978B868B16
:1028A000118E128E138E148E0895FC01918D228D3F
:1028B000892F90E0805C9F4F821B91098F7399272D
:1028C0000895FC01918D828D981731F0828DE80F6B
:1028D000F11D858D90E008958FEF9FEF0895FC0125
:1028E000918D828D981761F0828DDF01A80FB11D47
:1028F0005D968C91928D9F5F9F73928F90E008956B
:102900008FEF9FEF0895FC01538D448D252F30E00C
:10291000842F90E0821B930B541710F0CF960895EC
:1029200001970895FC01848DDF01A80FB11DA35A02
:10293000BF4F2C91848D90E001968F739927848FDF
:10294000A689B7892C93A089B1898C918370806402
:102950008C93938D848D981306C00288F389E02DA3
:1029600080818F7D80830895EF92FF920F931F9354
:10297000CF93DF93EC0181E0888F9B8D8C8D981332
:1029800005C0E889F989808185FD26C0F62E0B8D6A
:1029900010E00F5F1F4F0F731127E02E8C8DE81290
:1029A0000CC00FB607FCFACFE889F989808185FF52
:1029B000F5CFCE010E949214F1CF8B8DFE01E80F6E
:1029C000F11DE35AFF4FF0829FB7F8940B8FEA890D
:1029D000FB89808180620AC09FB7F894EE89FF89E5
:1029E0006083E889F98980818370806480839FBFD8
:1029F00081E090E0DF91CF911F910F91FF90EF90D8
:102A00000895CF93DF93EC01888D8823C9F0EA897C
:102A1000FB89808185FD05C0A889B9898C9186FDD7
:102A20000FC00FB607FCF5CF808185FFF2CFA889D4
:102A3000B9898C9185FFEDCFCE010E949214E7CF2A
:102A4000DF91CF910895CF92DF92EF92FF921F9383
:102A5000CF93DF93EC016A017B01122FE889F9899A
:102A600082E080834115514E61057105B1F060E04F
:102A700079E08DE390E0A70196010E945F17DA01EB
:102A8000C9010197A109B109B695A79597958795B1
:102A90009C01211580E13807A8F0E889F9891082A6
:102AA00060E874E88EE190E0A70196010E945F174C
:102AB000DA01C9010197A109B109B695A7959795C2
:102AC00087959C01EC85FD853083EE85FF8520830D
:102AD000188EEC89FD891083EA89FB8980818061E9
:102AE0008083EA89FB89808188608083EA89FB8909
:102AF000808180688083EA89FB8980818F7D8083E3
:102B0000DF91CF911F91FF90EF90DF90CF900895CC
:102B1000CF93CFB7F89480918A03811127C0E4EE58
:102B2000F0E08491E0EDF0E09491E82FF0E0EE0F1A
:102B3000FF1FEE5FFE4FA591B491EC91E92321F4C4
:102B400061E08AE00E94180C61E08AE00E94DC0BE0
:102B50008CB580618CBD8CB580648CBD61E08DE0EE
:102B60000E94DC0B61E08BE00E94DC0B80918A0309
:102B70008F5F80938A03CFBFCF910895F8940C9410
:102B800087175058BB27AA270E94D9150C94B8164E
:102B90000E94AA1638F00E94B11620F039F49F3F27
:102BA00019F426F40C94A7160EF4E095E7FB0C94A8
:102BB000A116E92F0E94C91658F3BA1762077307C6
:102BC0008407950720F079F4A6F50C94EB160EF423
:102BD000E0950B2EBA2FA02D0B01B90190010C012D
:102BE000CA01A0011124FF27591B99F0593F50F445
:102BF000503E68F11A16F040A22F232F342F44279D
:102C0000585FF3CF469537952795A795F040539594
:102C1000C9F77EF41F16BA0B620B730B840BBAF064
:102C20009150A1F0FF0FBB1F661F771F881FC2F7CF
:102C30000EC0BA0F621F731F841F48F487957795E3
:102C40006795B795F7959E3F08F0B0CF9395880F9D
:102C500008F09927EE0F9795879508950E943516ED
:102C60006894B1110C94EC1608950E94D11688F066
:102C70009F5798F0B92F9927B751B0F0E1F0660F40
:102C8000771F881F991F1AF0BA95C9F714C0B13081
:102C900091F00E94EB16B1E008950C94EB16672FAB
:102CA000782F8827B85F39F0B93FCCF386957795B0
:102CB0006795B395D9F73EF4909580957095619599
:102CC0007F4F8F4F9F4F0895E89409C097FB3EF4C4
:102CD00090958095709561957F4F8F4F9F4F992369
:102CE000A9F0F92F96E9BB279395F69587957795E7
:102CF0006795B795F111F8CFFAF4BB0F11F460FFA7
:102D00001BC06F5F7F4F8F4F9F4F16C0882311F0FE
:102D100096E911C0772321F09EE8872F762F05C012
:102D2000662371F096E8862F70E060E02AF09A95AD
:102D3000660F771F881FDAF7880F9695879597F9A2
:102D4000089597F99F6780E870E060E008959FEF2D
:102D500080EC089500240A94161617061806090632
:102D6000089500240A941216130614060506089501
:102D7000092E0394000C11F4882352F0BB0F40F489
:102D8000BF2B11F460FF04C06F5F7F4F8F4F9F4FC9
:102D9000089557FD9058440F551F59F05F3F71F04B
:102DA0004795880F97FB991F61F09F3F79F08795B2
:102DB0000895121613061406551FF2CF4695F1DF3B
:102DC00008C0161617061806991FF1CF86957105CB
:102DD000610508940895E894BB2766277727CB01FF
:102DE00097F908950E9405170C94B8160E94AA1628
:102DF00038F00E94B11620F0952311F00C94A11622
:102E00000C94A71611240C94EC160E94C91670F3AA
:102E1000959FC1F3950F50E0551F629FF001729F7F
:102E2000BB27F00DB11D639FAA27F00DB11DAA1F8E
:102E3000649F6627B00DA11D661F829F2227B00DDB
:102E4000A11D621F739FB00DA11D621F839FA00D66
:102E5000611D221F749F3327A00D611D231F849FB6
:102E6000600D211D822F762F6A2F11249F5750400D
:102E70009AF0F1F088234AF0EE0FFF1FBB1F661F88
:102E8000771F881F91505040A9F79E3F510580F051
:102E90000C94A1160C94EC165F3FE4F3983ED4F327
:102EA000869577956795B795F795E7959F5FC1F7F5
:102EB000FE2B880F911D9695879597F90895A1E2AD
:102EC0001A2EAA1BBB1BFD010DC0AA1FBB1FEE1FA4
:102ED000FF1FA217B307E407F50720F0A21BB30BEF
:102EE000E40BF50B661F771F881F991F1A9469F76B
:102EF00060957095809590959B01AC01BD01CF01C7
:102F00000895EE0FFF1F0590F491E02D0994F894B9
:022F1000FFCFF1
:102F120000000000000000000000000000000000AF
:102F2200000000000000000000000000000000009F
:102F3200000000000000000000000000000000008F
:102F4200000000000000000000000000000000007F
:102F5200000000000000000000000000000000006F
:102F6200000000000000000000000000000000005F
:102F72000000000000000000FFCDAB0000003E0199
:102F82000000002D020000DB02FFFFFFFFFFFFFF3A
:102F9200FF0000F30100000000FA000000FA000048
:102FA2000002FC0100000000640000006400000058
:102FB200020000000200000000010001000000FF0A
:102FC200FF000001000000000000000000000000FF
:102FD2000000000300FF0000CC0DCC0DFF4D6F641C
:102FE200756C6F2043414E20696E696369616C693B
:102FF2007A61646F21006D31444154413A2000925C
:10300200018301AB015809F901D40601AB0158094A
:103012000202D40600A601A101DB021F0211022D49
:10302200028C04E80400017A0B000001020100E8AE
:10303200058C030001D70A000000010100960498E4
:10304200045000700D000002000100C301010100E4
:103052000000EA07B807C1079A072E0537071B05C4
:1030620060073C08DD06E506F5082C082E09550820
:103072006109A0089809D806EA0978084D0A8E0A5B
:10308200BF080D0A006E616E00696E66006F76669B
:103092000000000000B414E6128314011555146FE9
:0430A20014611400A1
:00000001FF
