:100000000C94EE000C94590E0C94800E0C94160176
:100010000C9416010C9416010C9416010C94160104
:100020000C9416010C9416010C9416010C941601F4
:100030000C9416010C9416010C9416010C941601E4
:100040000C94FC0C0C9416010C94B5160C94E71649
:100050000C9416010C9416010C9416010C941601C4
:100060000C9416010C941601FD107D108110851062
:1000700089108D109010931097109A109E10A11057
:10008000A510A8100111B710BB101B11BF10E01074
:10009000C310E810EB10C610F210CA10CD10D0102B
:1000A0000511E010E410E810EB10EE10F210F6105D
:1000B000FA1000000008000201000003040700001D
:1000C000000000000000010204081020408001022E
:1000D000040810200102040810200404040404048D
:1000E00004040202020202020303030303030000EA
:1000F0000000230026002900000000002500280041
:100100002B0000000000240027002A0052657475AF
:10011000726E696E6720746F2050726576696F75B4
:1001200073204D6F6465204661696C7572652E2E73
:100130002E006053657474696E67204944204D6FCA
:100140006465204661696C7572652E2E2E005365BC
:100150007474696E672042617564726174652053BE
:1001600075636365737366756C2100536574746998
:100170006E67204261756472617465204661696CC6
:100180007572652E2E2E00456E746572696E67203D
:10019000436F6E66696775726174696F6E204D6F2B
:1001A0006465205375636365737366756C210045E0
:1001B0006E746572696E6720436F6E6669677572EB
:1001C0006174696F6E204D6F6465204661696C755E
:1001D00072652E2E2E000E0B530E0D1711241FBE0E
:1001E000CFEFD8E0DEBFCDBF12E0A0E0B1E0EAE1A2
:1001F000F5E302C005900D92A43EB107D9F725E0C2
:10020000A4EEB2E001C01D92A13CB207E1F710E0FC
:10021000CEEED0E004C02197FE010E946B1ACB3EC7
:10022000D107C9F70E94440E0C94A3180C94000047
:10023000E2E10E94BD010895E9E00E94BD01089538
:10024000EAE00E94BD010895E1E00E94BD01089529
:10025000E3E00E94BD010895E7E00E94BD0108951A
:10026000E5E00E94BD010895E0E00E94BD0108950F
:10027000E2E00E94BD010895E4E00E94BD010895FE
:10028000ECE00E94BD010895E8E00E94BD010895E0
:10029000EEE00E94BD010895E4E10E94BD010895D1
:1002A000E0E10E94BD010895E7E10E94BD010895CB
:1002B000E6E00E94BD010895EBE00E94BD010895B3
:1002C000EDE00E94BD010895EFE00E94BD01089598
:1002D000E1E10E94BD010895E3E10E94BD0108959E
:1002E000E5E10E94BD010895E6E10E94BD01089587
:1002F00021968A929A92AA92BA92CA92DA92EA9233
:10030000FA920A931A932197E0918301F091840164
:100310000080F181E02DC083D1830895C0918501D3
:10032000D0918601E881F981C081D181219619910E
:100330000991F990E990D990C990B990A9909990B4
:100340008990219708952F903F90E7E6F1E0CDB78F
:10035000DEB7EDBFFEBF3F922F9208952F903F90E2
:10036000CDBFDEBF3F922F920895E0E80E94BD010D
:100370000895E0E40E94BD0108952F923F924F92AC
:100380005F926F927F922FB62F92CF93DF937E2E44
:10039000F894E0910001EF5FE0930001E13011F487
:1003A0000E94A301E0E0E0939301E72DE07849F09B
:1003B0000E941106F0919401F17071F00E94C40442
:1003C0000BC0E72DEC3140F4EE0FF0E0ED56FD4FA1
:1003D0000190F081E02D0995F0919301EF2FE170EC
:1003E00059F0F27011F00E9478018F938F2F0E94C4
:1003F0000C048F910E948E012091000121502093C6
:100400000001222311F40E94AE01DF91CF912F90C1
:100410002FBE7F906F905F904F903F902F900895E8
:10042000CF92DF92EF92FF920F931F93DC01EC913A
:10043000DB012C918E2F8170C82ED12CE12CF12C58
:100440008E2F8F7090E0A0E0B0E0B695A7959795BD
:100450008795DC01A75DBC4F8C91C81AD108E108D3
:10046000F108EE70422F417050E060E070E0822FA2
:100470008F7090E0A0E0B0E0B695A795979587952E
:10048000DC01A75DBC4F8C91481B510961097109C2
:10049000822F8E7097018601017011272227332742
:1004A0000E2B4170552766277727482B81E090E077
:1004B000041715072607370710F080E090E01F911A
:1004C0000F91FF90EF90DF90CF9008958F929F92C1
:1004D000AF92BF92EF92FF920F931F93CF93DF9350
:1004E0007C014A015B01B694A794979487944230AB
:1004F000510561057105E0F0440F551F8701040F98
:10050000151FE401CC0FDD1FCE0DDF1DB801CE019C
:100510000E941002892B61F0F8019081818128816D
:1005200039813183208398838983B501A401DBCF8E
:10053000DF91CF911F910F91FF90EF90BF90AF90FF
:100540009F908F9008954F925F926F927F928F92BB
:100550009F92AF92BF92CF92DF92EF92FF920F9352
:100560001F93CF93DF9300D000D000D0CDB7DEB77C
:100570008C016A017B01DC018C91282F30E040E086
:1005800050E029833A834B835C8346015701880CF2
:10059000991CAA1CBB1C29813A814B815C812815BE
:1005A00039054A055B0508F442C0240135013FEFD7
:1005B000431A530A630A730A89819A81AB81BC8109
:1005C00084159505A605B70580F0B201660F771F63
:1005D000600F711FC401880F991F800F911F0E9427
:1005E0001002892B11F0530142013401660C771C73
:1005F000600E711ECC0CDD1CD801AC0DBD1DBE8380
:10060000AD83B301CD010E941002892B81F0ED81F1
:10061000FE8190818181D3012D913C91119731838D
:1006200020839C9311968C9375016401AECF26961E
:100630000FB6F894DEBF0FBECDBFDF91CF911F91F3
:100640000F91FF90EF90DF90CF90BF90AF909F9071
:100650008F907F906F905F904F900895E1E6F4E067
:1006600040814F5F408350E060E070E0E82FEE0F84
:10067000FF0BE65BFD4F0190F081E02D238530E01C
:10068000F901E75DFC4F908191509083FA01EE0FE4
:10069000FF1FEF59FB4F220F331F9170292B20832F
:1006A000818381E694E00C946602E1E6F4E0408107
:1006B0004F5F408350E060E070E0E82FEE0FFF0BEB
:1006C000EE5BFD4F0190F081E02D9381FA01EE0F7A
:1006D000FF1FEF59FB4F9083818381E694E00C94D8
:1006E0006602CF93DF93E1E6F4E080819FEF980FFD
:1006F0009083D281C38190E0880F991FDC01AF59AC
:10070000BB4F8D919C919383828341E050E060E0E8
:1007100070E0CF010E94A3028D2F9C2FDF91CF911B
:10072000089580918B0190918C01A0918D01B091E1
:100730008E018F3F2FEF9207A207B20731F0039788
:10074000A105B10524F481E0089580E0089582E0D8
:100750000895880F990BFC01E65BFD4F0190F08135
:10076000E02D0084F185E02D3097E9F02281211100
:100770001AC021E02283DC01AE5BBD4F0D90BC911D
:10078000A02D13968C9113978183808190E0FC01BA
:10079000E75DFC4F208121502083880F991F217035
:1007A000822B13968C930895880F990BFC01E65BBE
:1007B000FD4F0190F081E02D0084F185E02D309710
:1007C00061F02281213049F412822181FC01EE5B2B
:1007D000FD4F0190F081E02D2383089580918F01DA
:1007E00090919001A0919101B091920140918B0163
:1007F00050918C0160918D0170918E0148175907BD
:100800006A077B0741F0E0918901F0918A0121E0BC
:1008100024830C9455030895CF93DF93882391F09C
:10082000C0918301D0918401E0918701F09188010A
:100830008481833049F081E0848380918B010E9420
:10084000550302C0C0E0D0E0E0918901F0918A0137
:10085000F0938801E0938701809185019091860152
:10086000909384018093830180918F013091900156
:10087000209191019091920180938B0130938C0192
:1008800020938D0190938E0192E094830E94A9039E
:10089000CE01DF91CF91089580918B010E94D40306
:1008A000E0918701F09188018281882319F085E029
:1008B0008483089514820895CF93DF93282F220F05
:1008C000330BF901EE5BFD4FC081D1819A81F901B3
:1008D000E65BFD4F0190F081E02D2485921770F4C6
:1008E000911105C095E09C8391E0909394010E9442
:1008F0002E038A818F5F8A8380E001C084E0DF91CC
:10090000CF910895E82FEE0FFF0BEE5BFD4F0190A6
:10091000F081E02D118210820C94FE0D1F93CF9375
:10092000DF930E947103182F892F492F092E000C85
:10093000550B660B770B40938F015093900160939A
:10094000910170939201292F220F330BF901EE5B75
:10095000FD4FC081D181D0938A01C0938901F901F3
:10096000E65BFD4F20813181309386012093850124
:100970009C81953019F40E9482041B83109294018B
:10098000DF91CF911F910895E0918F01F091900137
:10099000EE0FFF1FEE5BFD4F0190F081E02D909177
:1009A00063048381891730F40E94EE030E948E0451
:1009B00083E001C080E080939301089581E08093FB
:1009C00093010C948E04EF92FF920F931F93CF9399
:1009D000DF93C1E001C0CC0F8A95EAF783E00E9463
:1009E0005C040FE812E0D0E0F80181918F018C23C4
:1009F00019F08D2F0E945C04DF5FD330A9F70CE85B
:100A000012E081E2E82E82E0F82ED1E0F801819137
:100A10008F018C2339F0F70180819181FC01D68709
:100A20000E944A05F2E0EF0EF11C82E00F38180731
:100A300069F7DF91CF911F910F91FF90EF9008958B
:100A40000E94F80681110E941907E0918701F09138
:100A5000880180819181892B21F080918B010E94F6
:100A6000E0080C9441080E94F80681110E941907C1
:100A7000E0918701F091880180819181892B21F09B
:100A800080918B010E94E0080C94290881E08093FA
:100A9000E4020895AF92BF92CF92DF92EF92FF925D
:100AA0000F931F93CF93DF93FC01A081B181AD9091
:100AB000BC90E501AC89BD89109739F0428553851A
:100AC0006485758530E020E017C0D50155969C936C
:100AD0008E93549757969C938E93569715821482B3
:100AE000138212825BC012968D919C9113973A2FBC
:100AF0002B2F009779F0DC011A96CD90DD90ED90C8
:100B0000FC901D974C155D056E057F0560F7CD01C6
:100B1000A32FB22F93838283B583A483009719F008
:100B2000EC01FD83EC83109729F01396FC93EE9370
:100B3000129705C0D5015596FC93EE935497E501A5
:100B4000AE89BF891A968D919D910D90BC91A02D73
:100B5000088919892A893B8980179107A207B30759
:100B600080F4041715072607370728F04817590798
:100B70006A077B0798F4D5015796FC93EE93569736
:100B80000DC0041715072607370740F44817590703
:100B90006A077B0718F4E501FF8BEE8BDF91CF919D
:100BA0001F910F91FF90EF90DF90CF90BF90AF908B
:100BB0000895CF93DF93DC01ED91FC9111970190A3
:100BC000F081E02D848995891296CD91DC9113975F
:100BD000A817B90711F4D58BC48B86899789A817F4
:100BE000B90711F4D78BC68B209731F014968D91ED
:100BF0009C9115979D838C8314960D90BC91A02D8C
:100C0000109721F01396DC93CE93129786899789DB
:100C1000892B21F484899589978B868BDF91CF91DD
:100C20000895EF92FF920F931F93CF93DF93FC01F0
:100C30008091E402882309F4B5C084859585A68552
:100C4000B7850196A11DB11D84879587A687B787B3
:100C5000408151816281738184179507A607B70788
:100C600009F0A0C040895189628973894F5F5F4F45
:100C70006F4F7F4F84819581A681B7818417950737
:100C8000A607B70718F440E050E0BA01408B518B3B
:100C9000628B738B1486158616861786C689D7894C
:100CA000209709F47FC08A859B85AC85BD85481750
:100CB00059076A077B0709F075C0CE01DC0112965F
:100CC000ED90FC901397E114F10471F0D7011A969E
:100CD0000D911D912D913C911D9740175107620771
:100CE000730711F4C701EACF2C813D81211531052D
:100CF00029F0D9011396FC92EE921297E114F104B7
:100D000029F0D70115963C932E93149724893589A1
:100D1000C217D30711F4F58AE48AE114F10419F03B
:100D2000F78AE68A04C024893589378B268B8F01A0
:100D3000FC0113821282EA80FB80E881F981028043
:100D4000F381E02DCE0109954E815F81688579851B
:100D5000411551056105710509F18A859B85AC85B1
:100D6000BD85840F951FA61FB71FF80144815581CB
:100D700066817781481759076A077B0738F4841B17
:100D8000950BA60BB70B0197A109B1098A879B8721
:100D9000AC87BD87CE010E944A0501C01E86E701CF
:100DA000209749F6DF91CF911F910F91FF90EF901F
:100DB0000895FC0182810C945C040E94F8068091E5
:100DC00068010895809368010E94E3040E9446052B
:100DD0000C94DE040C94FD0DCF93C82F0E94910358
:100DE000811102C00E943A0E8C2FCF910C941C01ED
:100DF0008091F1028130D9F08091E9029091EA026C
:100E0000A091EB02B091EC02892B8A2B8B2B79F409
:100E100081E04091ED025091EE026091EF027091FD
:100E2000F002452B462B472B19F480E0089581E012
:100E300008951092F1021092ED021092EE021092BB
:100E4000EF021092F0021092E9021092EA02109260
:100E5000EB021092EC028091E5029091E602A091E3
:100E6000E702B091E8028093F2029093F302A0931C
:100E7000F402B093F50208950E943D0E8091F202B3
:100E80009091F302A091F402B091F5020196A11D98
:100E9000B11D8093F2029093F302A093F402B093F9
:100EA000F5028091ED029091EE02A091EF02B091D7
:100EB000F0020196A11DB11D8093ED029093EE0208
:100EC000A093EF02B093F00208958091ED0290910B
:100ED000EE02A091EF02B091F0020097A105B105DA
:100EE00069F14091F2025091F3026091F402709125
:100EF000F50241505109610971094093F202509382
:100F0000F3026093F4027093F5020197A109B1090D
:100F10008093ED029093EE02A093EF02B093F00263
:100F20008091F2029091F302A091F402B091F50247
:100F3000892B8A2B8B2B11F40C943B0E08958091F6
:100F4000ED029091EE02A091EF02B091F002892B98
:100F50008A2B8B2B89F48091E9029091EA02A0916F
:100F6000EB02B091EC02892B8A2B8B2B29F40E9487
:100F70003D0E81E08093F10208958091F102882373
:100F800021F01092F1020C943B0E08950E94410E44
:100F90008091F2029091F302A091F402B091F502D7
:100FA0000196A11DB11D8093F2029093F302A093CC
:100FB000F402B093F5028091E9029091EA02A091C7
:100FC000EB02B091EC020196A11DB11D8093E902E4
:100FD0009093EA02A093EB02B093EC020895809103
:100FE000E9029091EA02A091EB02B091EC02009725
:100FF000A105B10569F14091F2025091F3026091AF
:10100000F4027091F5024150510961097109409350
:10101000F2025093F3026093F4027093F502019789
:10102000A109B1098093E9029093EA02A093EB022F
:10103000B093EC028091F2029091F302A091F4023D
:10104000B091F502892B8A2B8B2B11F40C943F0E57
:1010500008950E94F806882311F083E1089580E046
:101060000895CF93C82F0E94F8068C2F0E945C042D
:10107000C82F8091940181110E94C4048C2FCF91BC
:101080000895CF930E94F806882311F0C3E101C0B0
:10109000C0E0E0918701F0918801828181508283D4
:1010A0000E944C0481E0809393010E948E048C2F57
:1010B000CF910895CF93C82F0E94F806E091870141
:1010C000F09188018281815082838C2F0E945C0480
:1010D000C82F811108C00E944C0481E080939301C5
:1010E0000E948E0407C0E0918701F09188018281FF
:1010F0008F5F82838C2FCF910895CF930E94F80643
:10110000882311F0C3E101C0C0E080918B010E94EF
:10111000D4030E94C40480918B0190918C01A09112
:101120008D01B0918E0140918F015091900160919D
:1011300091017091920184179507A607B70711F4E2
:101140000E94A9038C2FCF910895CF93DF93EC01D8
:101150000E94F806882311F083E101C080E04091ED
:101160008B0150918C0160918D0170918E01433003
:1011700051056105710514F4488303C09091F50190
:101180009883DF91CF9108950F931F93CF93C82F2A
:101190008B010E94F806882311F083E101C080E0F2
:1011A000EC2FEE0FFF0BEE5BFD4F0190F081E02D79
:1011B00094819370F8019083CF911F910F910895BE
:1011C000880F990BFC01EE5BFD4FA081B181ED9181
:1011D000FC911197309769F01D921C922091F501B6
:1011E00093818481228314821382E92FF82F309710
:1011F000B9F70895CF93C82F0E94F806882311F0FD
:1012000083E101C080E0EC2FF0E0EE0FFF1FE65716
:10121000FD4FA081B18190918B0112969C93129702
:10122000E0918701F09188012081318114963C93EF
:101230002E931397B183A083938111969C9311975A
:101240002C9193819695921760F430E0D901A75DB7
:10125000BC4F9C9191509C93220F331F9170292B6E
:101260002383CF910895CF93DF93C82F0E94F80670
:10127000882311F0D3E101C0D0E0EC2FF0E0EE0FB5
:10128000FF1FE657FD4F0190F081E02DA0918701EF
:10129000B0918801818113968C93139783819481F7
:1012A0008D939C93148213828091F50182830E9416
:1012B000C4048D2FDF91CF910895DC01ED91FC9155
:1012C00084819581DC01ED91FC9109941F93CF936A
:1012D000DF93182FEB010E94F806882311F083E1B9
:1012E00001C080E0E12FF0E0EE0FFF1FEF5DFD4F4A
:1012F0000190F081E02D0190F081E02D0190F081CE
:10130000E02D40815181628173814C835D836E83C6
:101310007F834481558166817781488359836A83BD
:101320007B834085518562857385488759876A87A5
:101330007B87DF91CF911F9108958F929F92AF92FB
:10134000BF92CF92DF92EF92FF920F931F93CF93B2
:10135000C82F8B010E94F806882311F083E101C099
:1013600080E0EC2FF0E0EE0FFF1FEF5DFD4F0190EE
:10137000F081E02D9685913029F54285538564856D
:1013800075850190F081E02D0190F081E02DC088FD
:10139000D188E288F3884C155D056E057F0540F421
:1013A00084809580A680B780480D591D6A1D7B1DDD
:1013B0004C195D096E097F09F801408351836283EE
:1013C000738301C085E0CF911F910F91FF90EF9043
:1013D000DF90CF90BF90AF909F908F9008958F92A5
:1013E0009F92AF92BF92CF92DF92EF92FF920F93B4
:1013F0001F93CF93DF93D82F4A015B0168017901D6
:101400000E94F806882311F0C3E101C0C0E0ED2F6F
:10141000F0E0EE0FFF1FEF5DFD4F0190F081E02D3A
:101420008685811130C0A081B1810D90BC91A02D25
:1014300050964D915D916D917C915397480D591D3A
:101440006A1D7B1D14968D919D910D90BC91A02DD0
:1014500084179507A607B70740F4481B590B6A0B7A
:101460007B0B415051096109710942875387648799
:101470007587C682D782E086F18681E08687CF01B4
:101480000E944A0501C0C7E08C2FDF91CF911F91C8
:101490000F91FF90EF90DF90CF90BF90AF909F9013
:1014A0008F9008958F929F92AF92BF92CF92DF92CA
:1014B000EF92FF920F931F93CF93DF93C82F4A01B0
:1014C0005B01680179010E94F806882311F0D3E1DD
:1014D00001C0D0E0EC2FF0E0EE0FFF1FEF5DFD4FFD
:1014E0000190F081E02D868581110EC08286938661
:1014F000A486B586C682D782E086F18681E086879B
:10150000CF010E944A0501C0D7E08D2FDF91CF9116
:101510001F910F91FF90EF90DF90CF90BF90AF9011
:101520009F908F9008950F931F93CF93DF93C82FB1
:101530000E94F806882311F0D3E101C0D0E0EC2F1F
:10154000F0E0EE0FFF1FEF5DFD4F00811181F8010C
:101550008685813031F4C8010E94D905F8011686CC
:1015600001C0D5E08D2FDF91CF911F910F9108958C
:1015700026E040E052EC61E070E08DE393E00E94F1
:10158000081822E04DE063E086EF92E00E94961397
:10159000882339F068EC70E080E090E00E94850DCF
:1015A000F0CF66EF71E08DE393E00E94211560E0DB
:1015B00086EF92E00C945B1082E00E94D30C892BA2
:1015C00061F52EE033E046E153E06AE073E086EF38
:1015D00092E00E94551480910A0390910B03A09110
:1015E0000C03B0910D0383709570A07FB8718330A8
:1015F0009540A04FB84189F44091110320917101A9
:1016000030917201429FC001439F900D11248D576C
:101610009F4F9093200380931F03089580916B0147
:1016200090916C0190931A03809319038091690142
:1016300090916A0190931803809317036AE086EFF4
:1016400092E00C948313CF92DF92EF92FF920F936C
:101650008DE393E00E943A17181619060CF07FC02C
:1016600041E060E070E08DE393E00E944D167093DE
:10167000260360932503072E000C880B990B0E940C
:10168000501929E739EE46EA5EE30E94DC196B0146
:101690007C0123E333E343E650E460E070E0CB01F8
:1016A0000E94DC199B01AC01C701B6010E94A6187B
:1016B0006B017C0180911F039091200360912703AF
:1016C000709128038130910529F4613A8FE0780701
:1016D0002CF11EC08230910529F4613C82E178072B
:1016E000ECF016C08330910529F4613E85E178075E
:1016F000ACF00EC08430910529F4613089E178079F
:101700006CF006C0059721F461328CE1780734F063
:101710004AE050E08DE393E00E94CB1520911B033B
:1017200030911C0340911D0350911E0360E070E056
:1017300080E89FE30E94A618A70196010E94DC1989
:101740000E94181960932103709322036093180379
:1017500060931703609374016093750108C08091D2
:10176000180380937401809117038093750183E7B8
:10177000E82E81E0F82E08E021E040E051EF6EEF26
:1017800078E186EF92E00E941A140F91FF90EF909B
:10179000DF90CF9008958F929F92AF92BF92CF9299
:1017A000DF92EF92FF920F938DE393E00E943A173E
:1017B00018161906E4F541E060E070E08DE393E06F
:1017C0000E944D166B017C017093280360932703E0
:1017D00020916D0130916E0140916F015091700127
:1017E00060E070E080E89FE30E94A6184B015C0176
:1017F000B601DD0C880B990B0E9450199B01AC01BE
:10180000C501B4010E94DC190E94181960932303DA
:101810007093240360931A036093190360937E010D
:1018200060937F018DE393E00E94541708C080917C
:101830001A0380937E018091190380937F018BE7C7
:10184000E82E81E0F82E08E021E040E054E060EF6F
:101850007CE086EF92E00E941A148DE393E00F91F2
:10186000FF90EF90DF90CF90BF90AF909F908F90C0
:101870000C94541781ED91E00C94B50108958330D8
:1018800081F028F4813099F08230A1F008958730FA
:10189000A9F08830B9F08430D1F4809180008F7D38
:1018A00003C0809180008F7780938000089584B575
:1018B0008F7702C084B58F7D84BD08958091B0007C
:1018C0008F7703C08091B0008F7D8093B000089522
:1018D000CF93DF9390E0FC01EA53FF4F2491FC018A
:1018E000E652FF4F8491882361F190E0880F991FA1
:1018F000FC01EE5FFE4FC591D491FC01E850FF4F13
:10190000A591B491611109C09FB7F8948881209581
:1019100082238883EC912E230BC0623061F49FB741
:10192000F8948881322F309583238883EC912E2B75
:101930002C939FBF06C08FB7F894E8812E2B288385
:101940008FBFDF91CF9108951F93CF93DF93282FFF
:1019500030E0F901EE54FF4F8491F901EA53FF4F53
:10196000D491F901E652FF4FC491CC23C1F0162F58
:1019700081110E943F0CEC2FF0E0EE0FFF1FE850AA
:10198000FF4FA591B4919FB7F894111104C08C91A9
:10199000D095D82302C0EC91DE2BDC939FBFDF9162
:1019A000CF911F910895CF93DF93282F30E0F90155
:1019B000EE54FF4F8491F901EA53FF4FD491F9019E
:1019C000E652FF4FC491CC2391F081110E943F0C4D
:1019D000EC2FF0E0EE0FFF1FE251FF4FA591B49105
:1019E000EC91ED2381E090E021F480E002C080E002
:1019F00090E0DF91CF9108951F920F920FB60F9252
:101A000011242F933F934F935F936F937F938F9303
:101A10009F93AF93BF93EF93FF9380913403909183
:101A20003503A0913603B09137033091330323E09F
:101A3000230F2D3720F40196A11DB11D05C026E806
:101A4000230F0296A11DB11D20933303809334030D
:101A500090933503A0933603B093370380913803F6
:101A600090913903A0913A03B0913B030196A11DD7
:101A7000B11D8093380390933903A0933A03B09338
:101A80003B030E943A0CFF91EF91BF91AF919F9160
:101A90008F917F916F915F914F913F912F910F9017
:101AA0000FBE0F901F9018952FB7F89460913403D4
:101AB0007091350380913603909137032FBF0895BD
:101AC0003FB7F8948091380390913903A0913A037D
:101AD000B0913B0326B5A89B05C02F3F19F0019696
:101AE000A11DB11D3FBFBA2FA92F982F8827820FA4
:101AF000911DA11DB11DBC01CD0142E0660F771FF4
:101B0000881F991F4A95D1F708958F929F92AF929F
:101B1000BF92CF92DF92EF92FF926B017C010E9405
:101B2000600D4B015C01C114D104E104F10401F129
:101B30000E94FB0D0E94600DDC01CB018819990900
:101B4000AA09BB09883E9340A105B10560F321E0D5
:101B5000C21AD108E108F10888EE880E83E0981EC9
:101B6000A11CB11CC114D104E104F10419F7DBCFAD
:101B7000FF90EF90DF90CF90BF90AF909F908F90AD
:101B8000089584B5826084BD84B5816084BD85B5C7
:101B9000826085BD85B5816085BDEEE6F0E080811F
:101BA00081608083E1E8F0E0108280818260808340
:101BB000808181608083E0E8F0E0808181608083C3
:101BC000E1EBF0E0808184608083E0EBF0E08081F5
:101BD00081608083EAE7F0E0808184608083808197
:101BE000826080838081816080838081806880833F
:101BF0001092C10008950895FFCFFFCFCF93DF93D8
:101C0000880F990BFC01E65BFD4FC081D181AC814F
:101C1000BD8111978A819B81A80FB91F2D85CD01A8
:101C20000197FD013297223019F42CE331E002C014
:101C300028E531E02C93DC013C939E818F819083D9
:101C4000DF018E93CF0107971E928A179B07E1F75A
:101C500080E8DF0118978C93CF0144971E928A1772
:101C60009B07E1F7A881B9817597ED93FC93DF910C
:101C7000CF910895089578940895F89408957894EC
:101C80000895F894089508950E94C10D0E94430E8E
:101C90000E943E0C0E94B80A80913C030E94EC0610
:101CA00080E090E008958091920280933C03089533
:101CB00008951F920F920FB60F9211242F933F9306
:101CC0004F935F936F937F938F939F93AF93BF9344
:101CD000EF93FF93E091EE01F091EF010995FF91F1
:101CE000EF91BF91AF919F918F917F916F915F9194
:101CF0004F913F912F910F900FBE0F901F9018950D
:101D00001F920F920FB60F9211242F933F934F9370
:101D10005F936F937F938F939F93AF93BF93EF9353
:101D2000FF93E091F001F091F1010995FF91EF919E
:101D3000BF91AF919F918F917F916F915F914F91E3
:101D40003F912F910F900FBE0F901F9018952091EB
:101D5000DC03222399F04FB7F8942091DC03213063
:101D600059F42DB32093DA033DB32091DB03209582
:101D700023232DBB4FBF02C04093DA038CBD9DBD12
:101D800008958EBD00000DB407FEFDCF8EB50895F9
:101D90008091DC03882361F09FB7F8942091DC03E5
:101DA0008091DA03213019F48DBB9FBF08958FBF56
:101DB0000895CF93DF93EC0180E591E00E94A70E98
:101DC00060E08A890E94A40C80EC0E94C10E61E050
:101DD0008A890E94A40C0E94C80E65E070E080E031
:101DE00090E0DF91CF910C94850D1F93CF93DF93FB
:101DF000EC01162F80E591E00E94A70E60E08A8931
:101E00000E94A40C83E00E94C10E812F0E94C10E8B
:101E100080E00E94C10E182F61E08A890E94A40C04
:101E20000E94C80E812FDF91CF911F910895DF92FC
:101E3000EF92FF920F931F93CF93DF938C01C62FE6
:101E4000D42EE52EF22E80E591E00E94A70E60E0F0
:101E5000F80182890E94A40C83E00E94C10E8C2F9D
:101E60000E94C10ECD2DDE2DCE018F0D911D7C0166
:101E7000EC16FD0629F080E00E94C10E8993F8CF90
:101E800061E0F80182890E94A40CDF91CF911F913B
:101E90000F91FF90EF90DF900C94C80E0F931F935B
:101EA000CF93DF93EC01062F142F80E591E00E9481
:101EB000A70E60E08A890E94A40C82E00E94C10EF5
:101EC000802F0E94C10E812F0E94C10E61E08A897D
:101ED0000E94A40CDF91CF911F910F910C94C80E1A
:101EE000DF92EF92FF920F931F93CF93DF938C01BA
:101EF000C62FD42EE52EF22E80E591E00E94A70E8B
:101F000060E0F80182890E94A40C82E00E94C10E68
:101F10008C2F0E94C10ECD2DDE2DCE018F0D911D77
:101F20007C01EC16FD0621F089910E94C10EF9CFCB
:101F300061E0F80182890E94A40CDF91CF911F918A
:101F40000F91FF90EF90DF900C94C80EFF920F93CB
:101F50001F93CF93DF93EC01F62E042F122F80E511
:101F600091E00E94A70E60E08A890E94A40C85E09F
:101F70000E94C10E8F2D0E94C10E802F0E94C10EA3
:101F8000812F0E94C10E61E08A890E94A40CDF911A
:101F9000CF911F910F91FF900C94C80E1F93CF9378
:101FA000DF93EC0180E591E00E94A70E60E08A8952
:101FB0000E94A40C80EA0E94C10E80E00E94C10E23
:101FC000182F61E08A890E94A40C0E94C80E812FFC
:101FD000DF91CF911F910895EF92FF920F931F937E
:101FE000CF93DF93EC01162F0E94540D062FE12EA4
:101FF000F12C212F40EE6FE0CE010E94A60F6EE083
:10200000CE010E94F50E807E90E08E159F0539F07E
:102010000E94540D601B693C60F381E001C080E0C8
:10202000DF91CF911F910F91FF90EF9008950F9343
:102030001F93CF93DF93EC01162F6EE00E94F50EF5
:10204000807E803221F5103211F16BE2CE010E94C8
:10205000F50E082F007486FD06C020E440E46BE214
:10206000CE010E94A60F20E440E46CE2CE010E9463
:10207000A60F60E6CE010E94EC0F811116C001117F
:1020800006C020E040E46BE2CE010E94A60F20E0F3
:1020900040E46CE2CE010E94A60F612FCE01DF91D9
:1020A000CF911F910F910C94EC0F81E0DF91CF91B4
:1020B0001F910F910895FC01638B0C941710CF9220
:1020C000DF92EF92FF920F931F93CF93DF93342F02
:1020D0003370313009F43FC008F466C0323009F083
:1020E000AAC0062F10E0F8013197EE30F10508F094
:1020F000A2C0EC5CFF4F0C946B1AC4E8D6EF23E946
:1021000087C0C4E8D6EF29E883C0C3E8D5EE27E846
:102110007FC0C4E8D6EF25E87BC0C4E8D6EF05C091
:10212000C3E8D5EE02C0C1E8D3ED24E871C0C4E82D
:10213000D6EF02C0C3E8D5EE21E86AC0C4E8D6EF06
:1021400002C0C3E8D5EE20E863C0C1E8D1ED2AC0E3
:10215000C0E8D0EC27C0C62ED12CF6013197EE3066
:10216000F10508F068C0EE5BFF4F0C946B1AC4E8F1
:10217000D6EF27E64DC0C4E8D6EF23E549C0C3E853
:10218000D5EE2EE445C0C4E8D6EF42C0C3E8D5EE94
:1021900023E43EC0C3E8D5EE27C0C3E8D5EE28C08F
:1021A000C1E8DAEC20E034C0062F10E0F8013697E1
:1021B000E930F10508F03FC0E05BFF4F0C946B1A6B
:1021C000C4E8D6EF29E424C0C7E8DFEF24EC20C040
:1021D000C4E8D6EF05C0C3E8D5EE02C0C1E8D3ED30
:1021E00024E416C0C4E8D6EF21E412C0C4E8D6EF58
:1021F00020E40EC0C2E8D9EDD5CFC4E8D6EF27EA77
:1022000007C0C7E8DFEF2FE303C0C1E8D3ED28E143
:1022100042FDCF778C01422F6AE20E944E0F4D2F74
:1022200069E2C8010E944E0F4C2F68E2C8010E946B
:102230004E0F80E001C081E0DF91CF911F910F919F
:10224000FF90EF90DF90CF9008950F931F93CF935F
:10225000DF9300D000D0CDB7DEB74130B1F40C83AE
:102260001B83890122273327502F5C71402F437035
:1022700078E0579F400D112448604A8355E0169539
:1022800007955A95E1F709830DC0A80123E05695FB
:1022900047952A95E1F749830295000F007E0A834E
:1022A0001C821B8224E0AE014F5F5F4F0E94700FC3
:1022B0000F900F900F900F90DF91CF911F910F9182
:1022C00008950F931F93CF93DF9300D000D0CDB725
:1022D000DEB7E62FF42FA901662777270C831B832F
:1022E000F13081F4342F3C71242F2370F8E03F9FAC
:1022F000200D112428602A8335E0569547953A959C
:10230000E1F70AC0242F2295220F207E2A8323E0A2
:10231000569547952A95E1F7498324E0AE014F5F32
:102320005F4F6E2F0E94700F0F900F900F900F90C5
:10233000DF91CF911F910F9108950F931F93CF932A
:10234000DF93EC0100E010E0980141E060E20E94C0
:10235000611100E010E0980141E064E2CE010E94CA
:10236000611100E010E0980141E060E0CE010E94C0
:10237000611100E010E0980140E064E0CE010E94AD
:10238000611100E010E0980141E068E0CE010E9498
:10239000611100E010E0980140E060E1CE010E9490
:1023A000611100E010E0980141E064E1CE010E947B
:1023B000611100E010E0980140E068E1CE010E9468
:1023C000611110E340E0612FCE010E944E0F60E1E9
:1023D000610F40E0CE010E944E0F60E2610F40E0CD
:1023E000CE010E944E0F1F5F1E3361F740E060E692
:1023F000CE010E944E0F40E060E7CE01DF91CF9109
:102400001F910F910C944E0FEF92FF920F931F9319
:10241000CF93DF93EC01062FF42EE22E0E94D90E0B
:1024200080E48B8B60E8CE010E941710182F882360
:1024300041F06FEA71E08DE393E00E940F15812F68
:102440005CC067E871E08DE393E00E940F154E2DAC
:102450006F2DCE010E945F10882339F06BE671E08A
:102460008DE393E00E940F1547C06EE471E08DE3A9
:1024700093E00E940F15CE010E949D1143E06BE294
:10248000CE010E944E0F4CE36CE0CE010E944E0F35
:1024900040E06DE0CE010E944E0F002351F003306A
:1024A00019F524E644E660E6CE010E94A60F20E678
:1024B00007C024E044E660E6CE010E94A60F20E0BB
:1024C00040E660E7CE010E94A60F6B89CE010E9414
:1024D0001710C82F882381F06CE071E08DE393E042
:1024E0000E940F158C2F09C062E371E08DE393E029
:1024F0000E940F1581E001C080E0DF91CF911F9114
:102500000F91FF90EF900895EF92FF920F931F931A
:10251000CF93DF9300D000D0CDB7DEB77A01890129
:10252000FA011082F901108211821282138224E0D2
:10253000AE014F5F5F4F0E94170F2A813981822FB2
:1025400090E065E0959587956A95E1F7F8E03F9F03
:10255000800D911D1124092E000CAA0BBB0BF80154
:1025600080839183A283B38323FF25C032E0880F49
:10257000991FAA1FBB1F3A95D1F72370820F911D97
:10258000A11DB11DBA2FA92F982F88272B81820F4B
:10259000911DA11DB11DBA2FA92F982F88272C811D
:1025A000820F911DA11DB11D80839183A283B383EE
:1025B00081E0F70180830F900F900F900F90DF91D3
:1025C000CF911F910F91FF90EF900895FF920F937D
:1025D0001F93CF93DF93EC01F62EAC014A5F5F4F60
:1025E00065E06F0D2D810E94700F8E85813019F48A
:1025F0008D8180648D8364E06F0D4D81CE010E94DA
:102600004E0F09811A812B813C8148816F2DCE01AB
:102610000E942511DF91CF911F910F91FF90089596
:102620000F931F93CF93DF93EC01162F9C012F5F25
:102630003F4FAC010E9484126FEF610FCE010E94E8
:10264000F50E082F64E0610FCE010E94F50E8D8318
:1026500003FF03C091E09E8701C01E86282F2F70C4
:102660002D83AE014A5F5F4F65E0610FCE01DF91C0
:10267000CF911F910F910C94170F8F929F92AF9251
:10268000BF92CF92DF92EF92FF921F93CF93DF938F
:1026900000D01F92CDB7DEB74C016B018091F201E3
:1026A0009091F301A091F40189839A83AB83FB019C
:1026B0001082CE0101967C015E0194E0A90EB11C4E
:1026C000F70111917F01612FC4010E94F50E982F2F
:1026D000987083FD04C01F5FF601108304C0EA14E4
:1026E000FB0471F792E0892F0F900F900F90DF910C
:1026F000CF911F91FF90EF90DF90CF90BF90AF9060
:102700009F908F900895CF93DF93EC01862F6A8B73
:1027100061E00E94A40C61E08A890E94680C8EED41
:1027200093E0998B888BDF91CF910895FF920F935F
:102730001F93CF93DF93EC01162F042FF22E0E94EC
:102740006D182F2D402F612FCE010E94041291E0B1
:10275000811101C090E0892FDF91CF911F910F91DE
:10276000FF900895BF92CF92DF92EF92FF920F9366
:102770001F93CF93DF931F92CDB7DEB78C010E94DA
:10278000600D6B017C01BE016F5F7F4FC8010E942D
:102790003D13B82E0E94600DDC01CB018C199D0900
:1027A000AE09BF0922E0B21206C0843C9940A105DF
:1027B000B10548F331C0843C9940A105B10560F5ED
:1027C0006981C8010E94E6126981615028E048E0F1
:1027D000C8010E94A60F0E94600D6B017C016981F7
:1027E0006150C8010E94F50EB82E0E94600DDC01F8
:1027F000CB018C199D09AE09BF09B3FE06C0843C0C
:102800009940A105B10558F309C0843C9940A10540
:10281000B10520F480E003C086E001C087E00F909E
:10282000DF91CF911F910F91FF90EF90DF90CF90AC
:10283000BF900895EF92FF920F93FC014183528362
:1028400063837483168620830583F701DC01169663
:102850009C01225F3F4F41914D93A217B307D9F7D7
:102860000F91FF90EF900C94B213CF93DF93EC0194
:102870000E94CE0F80FF07C061E6CE010E941013B8
:1028800020E041E008C081FF0CC061E7CE010E945A
:10289000101320E042E06CE2CE010E94A60F80E01F
:1028A00001C084E0DF91CF910895CF92DF92EF9243
:1028B000FF920F931F93CF93DF93EC016B017A018B
:1028C00089010E943514843099F18881882349F068
:1028D00089819A81AB81BC81B06889839A83AB83FB
:1028E000BC838E85882349F089819A81AB81BC8124
:1028F000B06489839A83AB83BC8389819A81AB81DD
:10290000BC81F60180839183A283B3838D81F7011B
:102910008083DE011696F8018D8190E09F01201BD7
:10292000310B281739071CF48D918193F5CF80E086
:10293000DF91CF911F910F91FF90EF90DF90CF909B
:102940000895CF92DF92EF92FF920F931F93CF9350
:10295000DF936C017A018B01C0E0D0E0CE15DF057A
:1029600081F0D8016D918D01D601ED91FC9101901E
:10297000F081E02DC6010995892B11F02196EECF4B
:102980007E01C701DF91CF911F910F91FF90EF90D2
:10299000DF90CF9008956115710579F0FB010190EA
:1029A0000020E9F73197AF01461B570BDC01ED9191
:1029B000FC910280F381E02D099480E090E008957D
:1029C000EF92FF920F931F93CF93DF938C017B01C4
:1029D000C0E0D0E0F701EC0FFD1F6491662361F0C9
:1029E000D801ED91FC910190F081E02DC80109958D
:1029F000892B11F02196EECFCE01DF91CF911F915F
:102A00000F91FF90EF900895DC01ED91FC91019002
:102A1000F081E02D099463EC72E00C94CB140F93D9
:102A20001F93CF93DF93EC010E94E0148C01CE0141
:102A30000E940B15800F911FDF91CF911F910F9175
:102A400008950F931F93CF93DF93EC010E94CB1453
:102A50008C01CE010E940B15800F911FDF91CF9149
:102A60001F910F9108958F929F92AF92BF92EF9214
:102A7000FF920F931F93CF93DF93CDB7DEB7A1974C
:102A80000FB6F894DEBF0FBECDBF7C01FA01CB01BB
:102A900019A2223008F42AE08E010F5D1F4F822E0A
:102AA000912CA12CB12CBF01A50194010E94491ABF
:102AB000F901CA01015011096A3014F4605D01C0C6
:102AC000695CD8016C93232B242B252B61F7B8016B
:102AD000C7010E94CB14A1960FB6F894DEBF0FBEBB
:102AE000CDBFDF91CF911F910F91FF90EF90BF90DD
:102AF000AF909F908F900895CF92DF92EF92FF92C8
:102B00000F931F93CF93DF932115310581F4DC01DF
:102B1000ED91FC910190F081E02D642FDF91CF9138
:102B20001F910F91FF90EF90DF90CF9009942A3082
:102B3000310501F577FF1DC06A017B01EC016DE2F3
:102B40000E9404158C0144275527BA014C195D09D0
:102B50006E097F092AE0CE010E943315800F911F74
:102B6000DF91CF911F910F91FF90EF90DF90CF9069
:102B700008952AE0DF91CF911F910F91FF90EF9080
:102B8000DF90CF900C9433159A01AB01770F660B51
:102B9000770B0C947C150F931F93CF93DF93EC016D
:102BA0000E94C4158C01CE010E940B15800F911F4D
:102BB000DF91CF911F910F9108950F931F93CF93A2
:102BC000DF93EC010E94540D688779878A879B8781
:102BD000E881F9810484F585E02DCE01099597FF00
:102BE00017C00E94540D088519852A853B85DC0194
:102BF000CB01801B910BA20BB30B0C811D812E818D
:102C00003F8180179107A207B30710F38FEF9FEF63
:102C1000DF91CF911F910F910895FF920F931F9312
:102C2000CF93DF93EC018B01F42ECE010E94DD15D2
:102C300097FD2DC08D32910519F19C01205331096A
:102C40002A30310520F1FF2019F08E329105D1F0A4
:102C500001301105D1F00230110551F48D3091058C
:102C600039F024F40997029718F00FC0809769F49F
:102C7000E881F9810284F385E02DCE010995D5CF55
:102C80008DE201C08EE290E002C08FEF9FEFDF91F6
:102C9000CF911F910F91FF900895BF92CF92DF9235
:102CA000EF92FF920F931F93CF93DF938C01C42F6A
:102CB00040E00E940D16FC0197FD47C0C12CD12CAD
:102CC0007601B12C0C2E000CDD0BEC17FD0709F181
:102CD000ED32F105E1F0CF01C0970A97D0F4AAE0F8
:102CE000B0E0A70196010E94711A6F01FF0FEE0874
:102CF000FF08DC01CB018C0D9D1DAE1DBF1D6C01BD
:102D00007D0120E3C21AD108E108F10802C0BB240A
:102D1000B394D801ED91FC910284F385E02DC801B4
:102D20000995C8010E94DD15FC01C0970A9768F259
:102D3000CE17DF0751F2BB2061F066277727CB0162
:102D40006C197D098E099F0906C060E070E0CB0117
:102D500002C0C701B601DF91CF911F910F91FF9083
:102D6000EF90DF90CF90BF9008951F920F920FB613
:102D70000F9211242F938F939F93EF93FF93E091E2
:102D80004D03F0914E038081E0915303F091540381
:102D900082FD12C09081809156038F5F8F732091C6
:102DA0005703821751F0E0915603F0E0E35CFC4FCB
:102DB000958F8093560301C08081FF91EF919F9181
:102DC0008F912F910F900FBE0F901F9018951F920B
:102DD0000F920FB60F9211242F933F934F935F934F
:102DE0006F937F938F939F93AF93BF93EF93FF93D3
:102DF0008DE393E00E947717FF91EF91BF91AF9120
:102E00009F918F917F916F915F914F913F912F9102
:102E10000F900FBE0F901F901895EDE3F3E0138213
:102E2000128288EE93E0A0E0B0E084839583A683CD
:102E3000B78386ED92E09183808385EC90E095875F
:102E4000848784EC90E09787868780EC90E0918B74
:102E5000808B81EC90E0938B828B82EC90E0958B61
:102E6000848B86EC90E0978B868B118E128E138E5E
:102E7000148E0895FC01918D228D892F90E0805C45
:102E80009F4F821B91098F7399270895FC01918DA3
:102E9000828D981731F0828DE80FF11D858D90E0BD
:102EA00008958FEF9FEF0895FC01918D828D981703
:102EB00061F0828DDF01A80FB11D5D968C91928D1E
:102EC0009F5F9F73928F90E008958FEF9FEF08951B
:102ED000FC01538D448D252F30E0842F90E0821B20
:102EE000930B541710F0CF96089501970895FC01A5
:102EF000848DDF01A80FB11DA35ABF4F2C91848D83
:102F000090E001968F739927848FA689B7892C93B7
:102F1000A089B1898C91837080648C93938D848D0A
:102F2000981306C00288F389E02D80818F7D80830D
:102F30000895EF92FF920F931F93CF93DF93EC01CD
:102F400081E0888F9B8D8C8D981305C0E889F98965
:102F5000808185FD26C0F62E0B8D10E00F5F1F4F80
:102F60000F731127E02E8C8DE8120CC00FB607FCF2
:102F7000FACFE889F989808185FFF5CFCE010E94DB
:102F80007717F1CF8B8DFE01E80FF11DE35AFF4F4C
:102F9000F0829FB7F8940B8FEA89FB898081806269
:102FA0000AC09FB7F894EE89FF896083E889F989A0
:102FB00080818370806480839FBF81E090E0DF9197
:102FC000CF911F910F91FF90EF900895CF93DF93D2
:102FD000EC01888D8823C9F0EA89FB89808185FD11
:102FE00005C0A889B9898C9186FD0FC00FB607FC72
:102FF000F5CF808185FFF2CFA889B9898C9185FFB3
:10300000EDCFCE010E947717E7CFDF91CF910895E2
:10301000CF92DF92EF92FF921F93CF93DF93EC0159
:103020006A017B01122FE889F98982E080834115CA
:10303000514E61057105B1F060E079E08DE390E0FB
:10304000A70196010E94491ADA01C9010197A10955
:10305000B109B695A795979587959C01211580E1B3
:103060003807A8F0E889F989108260E874E88EE1F1
:1030700090E0A70196010E94491ADA01C90101975F
:10308000A109B109B695A795979587959C01EC85FF
:10309000FD853083EE85FF852083188EEC89FD89C0
:1030A0001083EA89FB89808180618083EA89FB89BA
:1030B000808188608083EA89FB8980818068808341
:1030C000EA89FB8980818F7D8083DF91CF911F9179
:1030D000FF90EF90DF90CF900895CF93CFB7F89403
:1030E0008091DD03811127C0E4EEF0E08491E0EDF2
:1030F000F0E09491E82FF0E0EE0FFF1FEE5FFE4F3F
:10310000A591B491EC91E92321F461E08AE00E9459
:10311000A40C61E08AE00E94680C8CB580618CBDD3
:103120008CB580648CBD61E08DE00E94680C61E02C
:103130008BE00E94680C8091DD038F5F8093DD033C
:10314000CFBFCF910895F8940C948B1A0E94BA18AF
:103150000C94A2190E949B1958F00E94941940F0F7
:1031600029F45F3F29F00C948B1951110C94D61956
:103170000C9491190E94B31968F39923B1F3552364
:1031800091F3951B550BBB27AA276217730784077A
:1031900038F09F5F5F4F220F331F441FAA1FA9F310
:1031A00035D00E2E3AF0E0E832D091505040E695FE
:1031B000001CCAF72BD0FE2F29D0660F771F881F5F
:1031C000BB1F261737074807AB07B0E809F0BB0B52
:1031D000802DBF01FF2793585F4F3AF09E3F510566
:1031E00078F00C948B190C94D6195F3FE4F3983E59
:1031F000D4F3869577956795B795F7959F5FC9F74F
:10320000880F911D9695879597F90895E1E0660FCF
:10321000771F881FBB1F621773078407BA0720F048
:10322000621B730B840BBA0BEE1F88F7E0950895B1
:103230000E941F196894B1110C94D61908950E9428
:10324000BB1988F09F5798F0B92F9927B751B0F064
:10325000E1F0660F771F881F991F1AF0BA95C9F71A
:1032600014C0B13091F00E94D519B1E008950C94CA
:10327000D519672F782F8827B85F39F0B93FCCF37D
:10328000869577956795B395D9F73EF49095809597
:10329000709561957F4F8F4F9F4F0895E89409C0B7
:1032A00097FB3EF490958095709561957F4F8F4F79
:1032B0009F4F9923A9F0F92F96E9BB279395F6958F
:1032C000879577956795B795F111F8CFFAF4BB0F0D
:1032D00011F460FF1BC06F5F7F4F8F4F9F4F16C071
:1032E000882311F096E911C0772321F09EE8872FFB
:1032F000762F05C0662371F096E8862F70E060E0B7
:103300002AF09A95660F771F881FDAF7880F96952F
:10331000879597F9089597F99F6780E870E060E0D6
:1033200008959FEF80EC089500240A94161617065E
:1033300018060906089500240A94121613061406A6
:1033400005060895092E0394000C11F4882352F009
:10335000BB0F40F4BF2B11F460FF04C06F5F7F4FC1
:103360008F4F9F4F089557FD9058440F551F59F0A8
:103370005F3F71F04795880F97FB991F61F09F3F62
:1033800079F087950895121613061406551FF2CF8B
:103390004695F1DF08C0161617061806991FF1CFDB
:1033A00086957105610508940895E894BB27662702
:1033B0007727CB0197F908950E94EF190C94A21971
:1033C0000E94941938F00E949B1920F0952311F067
:1033D0000C948B190C94911911240C94D6190E94F9
:1033E000B31970F3959FC1F3950F50E0551F629F7D
:1033F000F001729FBB27F00DB11D639FAA27F00D4E
:10340000B11DAA1F649F6627B00DA11D661F829F74
:103410002227B00DA11D621F739FB00DA11D621F59
:10342000839FA00D611D221F749F3327A00D611D76
:10343000231F849F600D211D822F762F6A2F112458
:103440009F5750409AF0F1F088234AF0EE0FFF1F8B
:10345000BB1F661F771F881F91505040A9F79E3FE2
:10346000510580F00C948B190C94D6195F3FE4F34E
:10347000983ED4F3869577956795B795F795E79538
:103480009F5FC1F7FE2B880F911D9695879597F941
:103490000895A1E21A2EAA1BBB1BFD010DC0AA1F95
:1034A000BB1FEE1FFF1FA217B307E407F50720F0AD
:1034B000A21BB30BE40BF50B661F771F881F991F28
:1034C0001A9469F760957095809590959B01AC0171
:1034D000BD01CF010895EE0FFF1F0590F491E02D7F
:1034E00009940E947C1AA59F900DB49F900DA49FF3
:1034F000800D911D11240895A29FB001B39FC001BA
:10350000A39F700D811D1124911DB29F700D811D0F
:0A3510001124911D0895F894FFCFD7
:10351A0000000000000000000000000000000000A1
:10352A000000000000000000000000000000000091
:10353A000000000000000000000000000000000081
:10354A000000000000000000000000000000000071
:10355A000000000000000000000000000000000061
:10356A000000000000000000000000000000000051
:10357A000000000000000000FFCDABCDAB00000052
:10358A003E0100FFFFFFFFFFFFFFFFFFFFFFFFFFFF
:10359A00FFFFFF00007C0200002E03FFFFFFFFFF7A
:1035AA00FFFFFF0000270200000000FA000000FAF7
:1035BA000000000230020000000064000000640005
:1035CA0000000239020000000064000000640000EC
:1035DA0000020000000300000000020000000001D9
:1035EA000001000000FFFF000001000000000000D1
:1035FA000000000000000000000400FF0000580E58
:10360A00580E304050FF4D435032353135206361FA
:10361A006E5F73656E6420696E696369616C697A4D
:10362A0061646F20636F6D207375636573736F21B7
:10363A0000B301A4019501D1015D092D02D9060249
:10364A00D1015D093602D90601D1015D093F02D9CE
:10365A000600CC01C701C2012E036E0260025202AB
:10366A007C02BD043F058000230B00000203010019
:10367A005F04BF048000CB0B000001020100BF05FC
:10368A00DF038000DC0A0000000101006B046D0406
:10369A005000FC0D000003000100E90101010100D6
:1036AA00000000EF07BD07C6079F0733053C072048
:1036BA000565074108E206EA06FA08310833095A9D
:1036CA00086609A5089D09DD06EF097D08520A93D7
:1036DA000AC4080D0A006E616E00696E66006F7694
:1036EA006600000000009917A1146817E6173A1738
:0436FA005417461704
:00000001FF
