:100000000C94E9000C944E0D0C94750D0C94110198
:100010000C9411010C9411010C9411010C94110118
:100020000C9411010C9411010C9411010C94110108
:100030000C9411010C9411010C9411010C941101F8
:100040000C94F10B0C9411010C945A140C948C1414
:100050000C9411010C9411010C9411010C941101D8
:100060000C9411010C9411019D0F1D0F210F250FF0
:10007000290F2D0F300F330F370F3A0F3E0F410F5F
:10008000450F480FA10F570F5B0FBB0F5F0F800F7E
:10009000630F880F8B0F660F920F6A0F6D0F700F33
:1000A000A50F800F840F880F8B0F8E0F920F960F66
:1000B0009A0F00000008000201000003040700007E
:1000C000000000000000010204081020408001022E
:1000D000040810200102040810200404040404048D
:1000E00004040202020202020303030303030000EA
:1000F0000000250028002B0000000000240027003D
:100100002A0052657475726E696E6720746F205094
:10011000726576696F7573204D6F646520466169FD
:100120006C7572652E2E2E006053657474696E674F
:10013000204944204D6F6465204661696C75726585
:100140002E2E2E0053657474696E672042617564AB
:1001500072617465205375636365737366756C2192
:100160000053657474696E672042617564726174CE
:1001700065204661696C7572652E2E2E00456E7481
:100180006572696E6720436F6E6669677572617428
:10019000696F6E204D6F646520537563636573737B
:1001A00066756C2100456E746572696E6720436FD9
:1001B0006E66696775726174696F6E204D6F6465F4
:1001C000204661696C7572652E2E2E00F40A480D6A
:1001D000B21411241FBECFEFD8E0DEBFCDBF12E0B6
:1001E000A0E0B1E0E8EEFDE202C005900D92A43A75
:1001F000B107D9F725E0A4EAB2E001C01D92A53EFF
:10020000B207E1F710E0C9EED0E004C02197FE018B
:100210000E94BE16C63ED107C9F70E94390D0C9444
:1002200048160C940000E2E10E94B8010895E9E04C
:100230000E94B8010895EAE00E94B8010895E1E043
:100240000E94B8010895E3E00E94B8010895E7E034
:100250000E94B8010895E5E00E94B8010895E0E029
:100260000E94B8010895E2E00E94B8010895E4E018
:100270000E94B8010895ECE00E94B8010895E8E0FA
:100280000E94B8010895EEE00E94B8010895E4E1EB
:100290000E94B8010895E0E10E94B8010895E7E1E5
:1002A0000E94B8010895E6E00E94B8010895EBE0CD
:1002B0000E94B8010895EDE00E94B8010895EFE0B2
:1002C0000E94B8010895E1E10E94B8010895E3E1B8
:1002D0000E94B8010895E5E10E94B8010895E6E1A1
:1002E0000E94B801089521968A929A92AA92BA928F
:1002F000CA92DA92EA92FA920A931A932197E091BB
:100300007501F09176010080F181E02DC083D183E9
:100310000895C0917701D0917801E881F981C08179
:10032000D181219619910991F990E990D990C990BC
:10033000B990A99099908990219708952F903F9016
:10034000E7E6F1E0CDB7DEB7EDBFFEBF3F922F92FB
:1003500008952F903F90CDBFDEBF3F922F9208951A
:10036000E0E80E94B8010895E0E40E94B801089511
:100370002F923F924F925F926F927F922FB62F9261
:10038000CF93DF937E2EF894E0910001EF5FE0932E
:100390000001E13011F40E949E01E0E0E09385014C
:1003A000E72DE07849F00E940706F0918601F17090
:1003B00071F00E94BF040BC0E72DEC3140F4EE0F4A
:1003C000F0E0EE5AFD4F0190F081E02D0995F0919B
:1003D0008501EF2FE17059F0F27011F00E94730166
:1003E0008F938F2F0E9407048F910E948901209183
:1003F0000001215020930001222311F40E94A90141
:10040000DF91CF912F902FBE7F906F905F904F9094
:100410003F902F900895CF92DF92EF92FF920F932B
:100420001F93DC01EC91DB012C918E2F8170C82E83
:10043000D12CE12CF12C8E2F877090E0A0E0B0E061
:10044000B695A79597958795DC01AE52BD4F8C91D7
:10045000C81AD108E108F108E670422F417050E057
:1004600060E070E0822F877090E0A0E0B0E0B69589
:10047000A79597958795DC01AE52BD4F8C91481B8F
:10048000510961097109822F8670970186010170F7
:100490001127222733270E2B4170552766277727F0
:1004A000482B81E090E0041715072607370710F066
:1004B00080E090E01F910F91FF90EF90DF90CF9040
:1004C00008958F929F92AF92BF92EF92FF920F93F7
:1004D0001F93CF93DF937C014A015B01B694A794ED
:1004E000979487944230510561057105E0F0440FFF
:1004F000551F8701040F151FE401CC0FDD1FCE0D22
:10050000DF1DB801CE010E940B02892B61F0F801BA
:1005100090818181288139813183208398838983E7
:10052000B501A401DBCFDF91CF911F910F91FF9017
:10053000EF90BF90AF909F908F9008954F925F92F1
:100540006F927F928F929F92AF92BF92CF92DF92E3
:10055000EF92FF920F931F93CF93DF9300D000D0C1
:1005600000D0CDB7DEB78C016A017B01DC018C9134
:10057000282F30E040E050E029833A834B835C83AE
:1005800046015701880C991CAA1CBB1C29813A8181
:100590004B815C81281539054A055B0508F442C08A
:1005A000240135013FEF431A530A630A730A898114
:1005B0009A81AB81BC8184159505A605B70580F0AD
:1005C000B201660F771F600F711FC401880F991F5A
:1005D000800F911F0E940B02892B11F053014201E1
:1005E0003401660C771C600E711ECC0CDD1CD8012A
:1005F000AC0DBD1DBE83AD83B301CD010E940B02C6
:10060000892B81F0ED81FE8190818181D3012D9133
:100610003C911197318320839C9311968C937501A3
:100620006401AECF26960FB6F894DEBF0FBECDBFE5
:10063000DF91CF911F910F91FF90EF90DF90CF90BE
:10064000BF90AF909F908F907F906F905F904F90F2
:100650000895E9E8F4E040814F5F408350E060E0B6
:1006600070E0E82FEE0FFF0BE55EFD4F0190F0818B
:10067000E02D238530E0F901EE52FD4F908191503D
:100680009083FA01EE0FFF1FE757FB4F220F331F36
:100690009170292B2083818389E894E00C94610276
:1006A000E9E8F4E040814F5F408350E060E070E0B3
:1006B000E82FEE0FFF0BEB5EFD4F0190F081E02D78
:1006C0009381FA01EE0FFF1FE757FB4F9083818361
:1006D00089E894E00C946102CF93DF93E9E8F4E0B9
:1006E00080819FEF980F9083D281C38190E0880F23
:1006F000991FDC01A757BB4F8D919C9193838283F7
:1007000041E050E060E070E0CF010E949E028D2F3A
:100710009C2FDF91CF91089580917D0190917E0172
:10072000A0917F01B09180018F3F2FEF9207A20728
:10073000B20731F00297A105B10524F481E00895D4
:1007400080E0089582E00895880F990BFC01E55E32
:10075000FD4F0190F081E02D0084F185E02D309770
:10076000E9F0228121111AC021E02283DC01AB5E75
:10077000BD4F0D90BC91A02D13968C911397818342
:10078000808190E0FC01EE52FD4F208121502083BA
:10079000880F991F2170822B13968C930895880FD0
:1007A000990BFC01E55EFD4F0190F081E02D008486
:1007B000F185E02D309761F02281213049F41282D9
:1007C0002181FC01EB5EFD4F0190F081E02D238340
:1007D00008958091810190918201A0918301B0914F
:1007E000840140917D0150917E0160917F01709163
:1007F0008001481759076A077B0741F0E0917B01A8
:10080000F0917C0121E024830C9450030895CF9350
:10081000DF93882391F0C0917501D0917601E0912A
:100820007901F0917A018481833049F081E08483F9
:1008300080917D010E94500302C0C0E0D0E0E091B1
:100840007B01F0917C01F0937A01E0937901809132
:100850007701909178019093760180937501809152
:1008600081013091820120918301909184018093D4
:100870007D0130937E0120937F019093800192E06F
:1008800094830E94A403CE01DF91CF9108958091BB
:100890007D010E94CF03E0917901F0917A0182817C
:1008A000882319F085E08483089514820895CF93F6
:1008B000DF93282F220F330BF901EB5EFD4FC08130
:1008C000D1819A81F901E55EFD4F0190F081E02D23
:1008D0002485921770F4911105C095E09C8391E0F6
:1008E000909386010E9429038A818F5F8A8380E02A
:1008F00001C084E0DF91CF910895E82FEE0FFF0B48
:10090000EB5EFD4F0190F081E02D118210820C947E
:10091000F30C1F93CF93DF930E946C03182F892F42
:10092000492F092E000C550B660B770B4093810164
:10093000509382016093830170938401292F220FC9
:10094000330BF901EB5EFD4FC081D181D0937C0167
:10095000C0937B01F901E55EFD4F20813181309329
:100960007801209377019C81953019F40E947D04D1
:100970001B8310928601DF91CF911F910895E09122
:100980008101F0918201EE0FFF1FEB5EFD4F0190A0
:10099000F081E02D90918B048381891730F40E94BF
:1009A000E9030E94890483E001C080E0809385010F
:1009B000089581E0809385010C948904CF93DF939F
:1009C000C1E0D0E001C0CC0F8A95EAF782E00E9436
:1009D000570480914F028C2319F080E00E94570445
:1009E000809150028C2319F081E00E94570480917D
:1009F0004D028C2349F08091FF019091000221E08B
:100A0000FC0126870E94400580914E02C82359F0C0
:100A1000809101029091020221E0FC012687DF9182
:100A2000CF910C944005DF91CF9108950E94EE067E
:100A300081110E940F07E0917901F0917A01808184
:100A40009181892B21F080917D010E94D6080C9420
:100A500037080E94EE0681110E940F07E09179018C
:100A6000F0917A0180819181892B21F080917D0123
:100A70000E94D6080C941F0881E08093A402089578
:100A8000AF92BF92CF92DF92EF92FF920F931F939C
:100A9000CF93DF93FC01A081B181AD90BC90E501C3
:100AA000AC89BD89109739F0428553856485758579
:100AB00030E020E017C0D50155969C938E93549753
:100AC00057969C938E9356971582148213821282A6
:100AD0005BC012968D919C9113973A2F2B2F009704
:100AE00079F0DC011A96CD90DD90ED90FC901D9789
:100AF0004C155D056E057F0560F7CD01A32FB22F64
:100B000093838283B583A483009719F0EC01FD835E
:100B1000EC83109729F01396FC93EE93129705C07F
:100B2000D5015596FC93EE935497E501AE89BF89A4
:100B30001A968D919D910D90BC91A02D08891989CF
:100B40002A893B8980179107A207B30780F404170D
:100B500015072607370728F0481759076A077B0744
:100B600098F4D5015796FC93EE9356970DC0041751
:100B700015072607370740F4481759076A077B0708
:100B800018F4E501FF8BEE8BDF91CF911F910F9150
:100B9000FF90EF90DF90CF90BF90AF900895CF93EC
:100BA000DF93DC01ED91FC9111970190F081E02D34
:100BB000848995891296CD91DC911397A817B9076E
:100BC00011F4D58BC48B86899789A817B90711F4BE
:100BD000D78BC68B209731F014968D919C911597E9
:100BE0009D838C8314960D90BC91A02D109721F0BD
:100BF0001396DC93CE93129786899789892B21F4DB
:100C000084899589978B868BDF91CF910895EF9298
:100C1000FF920F931F93CF93DF93FC018091A40267
:100C2000882309F4B5C084859585A685B785019686
:100C3000A11DB11D84879587A687B7874081518103
:100C40006281738184179507A607B70709F0A0C0D2
:100C500040895189628973894F5F5F4F6F4F7F4F22
:100C600084819581A681B78184179507A607B70768
:100C700018F440E050E0BA01408B518B628B738BCB
:100C80001486158616861786C689D789209709F493
:100C90007FC08A859B85AC85BD85481759076A0743
:100CA0007B0709F075C0CE01DC011296ED90FC9037
:100CB0001397E114F10471F0D7011A960D911D916B
:100CC0002D913C911D97401751076207730711F44E
:100CD000C701EACF2C813D812115310529F0D901C9
:100CE0001396FC92EE921297E114F10429F0D701C9
:100CF00015963C932E93149724893589C217D307F0
:100D000011F4F58AE48AE114F10419F0F78AE68A0D
:100D100004C024893589378B268B8F01FC0113820F
:100D20001282EA80FB80E881F9810280F381E02D64
:100D3000CE0109954E815F81688579854115510500
:100D40006105710509F18A859B85AC85BD85840F98
:100D5000951FA61FB71FF8014481558166817781D1
:100D6000481759076A077B0738F4841B950BA60BB5
:100D7000B70B0197A109B1098A879B87AC87BD870B
:100D8000CE010E94400501C01E86E701209749F66A
:100D9000DF91CF911F910F91FF90EF900895FC018B
:100DA00082810C9457040E94EE0680916801089598
:100DB000809368010E94DE040E943C050C94D904D3
:100DC0000C94F20CCF93C82F0E948C03811102C0A7
:100DD0000E942F0D8C2FCF910C9417018091B1029E
:100DE0008130D9F08091A9029091AA02A091AB0222
:100DF000B091AC02892B8A2B8B2B79F481E0409146
:100E0000AD025091AE026091AF027091B002452BDD
:100E1000462B472B19F480E0089581E00895109245
:100E2000B1021092AD021092AE021092AF02109277
:100E3000B0021092A9021092AA021092AB02109274
:100E4000AC028091A5029091A602A091A702B09158
:100E5000A8028093B2029093B302A093B402B0931D
:100E6000B50208950E94320D8091B2029091B302B2
:100E7000A091B402B091B5020196A11DB11D80935D
:100E8000B2029093B302A093B402B093B5028091E2
:100E9000AD029091AE02A091AF02B091B002019666
:100EA000A11DB11D8093AD029093AE02A093AF023D
:100EB000B093B00208958091AD029091AE02A091DE
:100EC000AF02B091B0020097A105B10569F1409160
:100ED000B2025091B3026091B4027091B5024150D8
:100EE0005109610971094093B2025093B3026093B2
:100EF000B4027093B5020197A109B1098093AD02C4
:100F00009093AE02A093AF02B093B0028091B20270
:100F10009091B302A091B402B091B502892B8A2BB3
:100F20008B2B11F40C94300D08958091AD029091AB
:100F3000AE02A091AF02B091B002892B8A2B8B2B0D
:100F400089F48091A9029091AA02A091AB02B0917C
:100F5000AC02892B8A2B8B2B29F40E94320D81E065
:100F60008093B10208958091B102882321F01092FC
:100F7000B1020C94300D08950E94360D8091B2029A
:100F80009091B302A091B402B091B5020196A11D57
:100F9000B11D8093B2029093B302A093B402B093B8
:100FA000B5028091A9029091AA02A091AB02B091E2
:100FB000AC020196A11DB11D8093A9029093AA02D3
:100FC000A093AB02B093AC0208958091A9029091D6
:100FD000AA02A091AB02B091AC020097A105B105A5
:100FE00069F14091B2025091B3026091B4027091E4
:100FF000B50241505109610971094093B202509301
:10100000B3026093B4027093B5020197A109B109CC
:101010008093A9029093AA02A093AB02B093AC0272
:101020008091B2029091B302A091B402B091B50246
:10103000892B8A2B8B2B11F40C94340D08950E946C
:10104000EE06882311F083E1089580E00895CF93A0
:10105000C82F0E94EE068C2F0E945704C82F809143
:10106000860181110E94BF048C2FCF910895CF93E8
:101070000E94EE06882311F0C3E101C0C0E0E091B8
:101080007901F0917A018281815082830E94470424
:1010900081E0809385010E9489048C2FCF9108956F
:1010A000CF93C82F0E94EE06E0917901F0917A016A
:1010B0008281815082838C2F0E945704C82F811116
:1010C00008C00E94470481E0809385010E94890442
:1010D00007C0E0917901F0917A0182818F5F82836C
:1010E0008C2FCF910895CF930E94EE06882311F0A4
:1010F000C3E101C0C0E080917D010E94CF030E9446
:10110000BF0480917D0190917E01A0917F01B091FB
:101110008001409181015091820160918301709121
:10112000840184179507A607B70711F40E94A4034A
:101130008C2FCF910895CF93DF93EC010E94EE06A0
:10114000882311F083E101C080E040917D0150913E
:101150007E0160917F0170918001423051056105EF
:10116000710514F4488303C09091D3019883DF91F3
:10117000CF9108950F931F93CF93C82F8B010E9497
:10118000EE06882311F083E101C080E0EC2FEE0F22
:10119000FF0BEB5EFD4F0190F081E02D9481937089
:1011A000F8019083CF911F910F910895880F990BAB
:1011B000FC01EB5EFD4FA081B181ED91FC91119797
:1011C000309769F01D921C922091D3019381848104
:1011D000228314821382E92FF82F3097B9F70895EC
:1011E000CF93C82F0E94EE06882311F083E101C03F
:1011F00080E0EC2FF0E0EE0FFF1FE55BFD4FA081DC
:10120000B18190917D0112969C931297E0917901A2
:10121000F0917A012081318114963C932E9313979B
:10122000B183A083938111969C9311972C91938104
:101230009695921760F430E0D901AE52BD4F9C9163
:1012400091509C93220F331F9170292B2383CF91B0
:101250000895CF93DF93C82F0E94EE06882311F0E4
:10126000D3E101C0D0E0EC2FF0E0EE0FFF1FE55B13
:10127000FD4F0190F081E02DA0917901B0917A01AC
:10128000818113968C931397838194818D939C9382
:10129000148213828091D30182830E94BF048D2F18
:1012A000DF91CF910895DC01ED91FC9184819581CE
:1012B000DC01ED91FC9109941F93CF93DF93182FDC
:1012C000EB010E94EE06882311F083E101C080E06B
:1012D000E12FF0E0EE0FFF1FE150FE4F0190F08193
:1012E000E02D0190F081E02D0190F081E02D408112
:1012F0005181628173814C835D836E837F834481DE
:10130000558166817781488359836A837B834085D1
:10131000518562857385488759876A877B87DF9106
:10132000CF911F9108958F929F92AF92BF92CF92CB
:10133000DF92EF92FF920F931F93CF93C82F8B01F1
:101340000E94EE06882311F083E101C080E0EC2FBB
:10135000F0E0EE0FFF1FE150FE4F0190F081E02D15
:101360009685913029F54285538564857585019070
:10137000F081E02D0190F081E02DC088D188E288D5
:10138000F3884C155D056E057F0540F484809580DB
:10139000A680B780480D591D6A1D7B1D4C195D093B
:1013A0006E097F09F801408351836283738301C012
:1013B00085E0CF911F910F91FF90EF90DF90CF903C
:1013C000BF90AF909F908F9008958F929F92AF9211
:1013D000BF92CF92DF92EF92FF920F931F93CF9322
:1013E000DF93D82F4A015B01680179010E94EE0664
:1013F000882311F0C3E101C0C0E0ED2FF0E0EE0F53
:10140000FF1FE150FE4F0190F081E02D8685811194
:1014100030C0A081B1810D90BC91A02D50964D910E
:101420005D916D917C915397480D591D6A1D7B1DEF
:1014300014968D919D910D90BC91A02D84179507C8
:10144000A607B70740F4481B590B6A0B7B0B4150AA
:101450005109610971094287538764877587C6827C
:10146000D782E086F18681E08687CF010E94400521
:1014700001C0C7E08C2FDF91CF911F910F91FF909A
:10148000EF90DF90CF90BF90AF909F908F90089596
:101490008F929F92AF92BF92CF92DF92EF92FF9284
:1014A0000F931F93CF93DF93C82F4A015B0168010D
:1014B00079010E94EE06882311F0D3E101C0D0E04B
:1014C000EC2FF0E0EE0FFF1FE150FE4F0190F08196
:1014D000E02D868581110EC082869386A486B5860E
:1014E000C682D782E086F18681E08687CF010E949E
:1014F000400501C0D7E08D2FDF91CF911F910F9153
:10150000FF90EF90DF90CF90BF90AF909F908F9023
:1015100008950F931F93CF93DF93C82F0E94EE0679
:10152000882311F0D3E101C0D0E0EC2FF0E0EE0F02
:10153000FF1FE150FE4F00811181F8018685813047
:1015400031F4C8010E94CF05F801168601C0D5E02C
:101550008D2FDF91CF911F910F91089526E040E0EC
:1015600052EC61E070E085EE92E00E94AD1522E061
:101570004DE063E086EB92E00E94A711882339F0EA
:1015800068EC70E080E090E00E947A0CF0CF64EDAF
:1015900071E085EE92E00E94C61260E086EB92E078
:1015A0000C94FB0EEF92FF920F9389E6E82E81E0F8
:1015B000F82E08E021E043E055E060EF78E186EBAB
:1015C00092E00E942B1281110AC06091D0027091AA
:1015D000D1024AE050E085EE92E00E9470130F9134
:1015E000FF90EF900C943F016AE086EB92E00C9440
:1015F0009411EF92FF920F931F93CF93DF9385EE99
:1016000092E00E94DF14181619060CF043C041E066
:1016100060E070E085EE92E00E94F2138B019C0185
:101620007B017093D1026093D0026091730170913D
:10163000740181E090E00E948816609FE001619F44
:10164000D00D709FD00D1124809171019091720185
:10165000C81BD90BBE010D2E000C880B990B0E94E4
:101660004D166093CC027093CD028093CE0290937E
:10167000CF02EF2831F0D093CB02C093CA028C2F57
:1016800002C08091CA0280936C0185EE92E00E94B4
:10169000F91404C08091CA0280936C0185EE92E037
:1016A000DF91CF911F910F91FF90EF900C94F9145F
:1016B0008FEA91E00C94B0010895833081F028F412
:1016C000813099F08230A1F008958730A9F08830F8
:1016D000B9F08430D1F4809180008F7D03C0809177
:1016E00080008F7780938000089584B58F7702C043
:1016F00084B58F7D84BD08958091B0008F7703C03D
:101700008091B0008F7D8093B0000895CF93DF93D8
:1017100090E0FC01EA53FF4F2491FC01E652FF4F99
:101720008491882361F190E0880F991FFC01E850B3
:10173000FF4FC591D491FC01E251FF4FA591B491A7
:10174000611109C09FB7F89488812095822388830E
:10175000EC912E230BC0623061F49FB7F89488811E
:10176000322F309583238883EC912E2B2C939FBFAF
:1017700006C08FB7F894E8812E2B28838FBFDF91A6
:10178000CF9108951F93CF93DF93282F30E0F90175
:10179000EE54FF4F8491F901EA53FF4FD491F901C0
:1017A000E652FF4FC491CC23C1F0162F81110E9445
:1017B0005D0BEC2FF0E0EE0FFF1FE251FF4FA59104
:1017C000B4919FB7F894111104C08C91D095D8238F
:1017D00002C0EC91DE2BDC939FBFDF91CF911F9174
:1017E00008951F920F920FB60F9211242F933F93DB
:1017F0004F935F936F937F938F939F93AF93BF9319
:10180000EF93FF938091DC029091DD02A091DE02C4
:10181000B091DF023091DB0223E0230F2D3720F45B
:101820000196A11DB11D05C026E8230F0296A11D3A
:10183000B11D2093DB028093DC029093DD02A09324
:10184000DE02B093DF028091E0029091E102A0916C
:10185000E202B091E3020196A11DB11D8093E00266
:101860009093E102A093E202B093E3020E94580B2E
:10187000FF91EF91BF91AF919F918F917F916F9168
:101880005F914F913F912F910F900FBE0F901F903E
:1018900018952FB7F8946091DC027091DD02809169
:1018A000DE029091DF022FBF08953FB7F894809138
:1018B000E0029091E102A091E202B091E30226B52C
:1018C000A89B05C02F3F19F00196A11DB11D3FBF78
:1018D000BA2FA92F982F8827820F911DA11DB11D06
:1018E000BC01CD0142E0660F771F881F991F4A9502
:1018F000D1F708958F929F92AF92BF92CF92DF92CD
:10190000EF92FF926B017C010E94550C4B015C0130
:10191000C114D104E104F10401F10E94F00C0E9411
:10192000550CDC01CB0188199909AA09BB09883E2D
:101930009340A105B10560F321E0C21AD108E10886
:10194000F10888EE880E83E0981EA11CB11CC1141A
:10195000D104E104F10419F7DBCFFF90EF90DF90A1
:10196000CF90BF90AF909F908F90089584B5826084
:1019700084BD84B5816084BD85B5826085BD85B533
:10198000816085BDEEE6F0E0808181608083E1E8E2
:10199000F0E010828081826080838081816080831A
:1019A000E0E8F0E0808181608083E1EBF0E080811D
:1019B00084608083E0EBF0E0808181608083EAE7EF
:1019C000F0E0808184608083808182608083808178
:1019D000816080838081806880831092C100089537
:1019E0000895FFCFFFCFCF93DF93880F990BFC01B2
:1019F000E55EFD4FC081D181AC81BD8111978A81A7
:101A00009B81A80FB91F2D85CD010197FD0132974C
:101A1000223019F427E331E002C023E531E02C93B2
:101A2000DC013C939E818F819083DF018E93CF01F7
:101A300007971E928A179B07E1F780E8DF01189746
:101A40008C93CF0144971E928A179B07E1F7A881D8
:101A5000B9817597ED93FC93DF91CF910895089527
:101A600078940895F894089578940895F8940895D2
:101A700008950E94B60C0E94380D0E945C0B0E94D3
:101A8000AE0A8091E4020E94E20680E090E00895B0
:101A9000809151028093E402089508951F920F925D
:101AA0000FB60F9211242F933F934F935F936F9331
:101AB0007F938F939F93AF93BF93EF93FF93E091A7
:101AC000CC01F091CD010995FF91EF91BF91AF91BC
:101AD0009F918F917F916F915F914F913F912F9146
:101AE0000F900FBE0F901F9018951F920F920FB678
:101AF0000F9211242F933F934F935F936F937F9394
:101B00008F939F93AF93BF93EF93FF93E091CE0199
:101B1000F091CF010995FF91EF91BF91AF919F9106
:101B20008F917F916F915F914F913F912F910F9086
:101B30000FBE0F901F90189520918403222399F0D7
:101B40004FB7F89420918403213059F42DB320939A
:101B500082033DB320918303209523232DBB4FBFE8
:101B600002C0409382038CBD9DBD08958EBD0000D0
:101B70000DB407FEFDCF8EB50895809184038823B0
:101B800061F09FB7F8942091840380918203213003
:101B900019F48DBB9FBF08958FBF0895CF93DF9336
:101BA000EC0180E591E00E949C0D60E08A890E9432
:101BB000C20B80EC0E94B60D61E08A890E94C20BC4
:101BC0000E94BD0D65E070E080E090E0DF91CF9174
:101BD0000C947A0C1F93CF93DF93EC01162F80E5C2
:101BE00091E00E949C0D60E08A890E94C20B83E014
:101BF0000E94B60D812F0E94B60D80E00E94B60DA6
:101C0000182F61E08A890E94C20B0E94BD0D812FAE
:101C1000DF91CF911F9108950F931F93CF93DF937F
:101C2000EC01062F142F80E591E00E949C0D60E0EE
:101C30008A890E94C20B82E00E94B60D802F0E940A
:101C4000B60D812F0E94B60D61E08A890E94C20BF9
:101C5000DF91CF911F910F910C94BD0DDF92EF9208
:101C6000FF920F931F93CF93DF938C01C62FD42E37
:101C7000E52EF22E80E591E00E949C0D60E0F801D7
:101C800082890E94C20B82E00E94B60D8C2F0E94B6
:101C9000B60DCD2DDE2DCE018F0D911D7C01EC16E4
:101CA000FD0621F089910E94B60DF9CF61E0F8019F
:101CB00082890E94C20BDF91CF911F910F91FF90FB
:101CC000EF90DF900C94BD0DFF920F931F93CF9375
:101CD000DF93EC01F62E042F122F80E591E00E9495
:101CE0009C0D60E08A890E94C20B85E00E94B60DBF
:101CF0008F2D0E94B60D802F0E94B60D812F0E945D
:101D0000B60D61E08A890E94C20BDF91CF911F91CD
:101D10000F91FF900C94BD0DEF92FF920F931F93C4
:101D2000CF93DF93EC01162F0E94490C062FE12E72
:101D3000F12C212F40EE6FE0CE010E94640E6EE088
:101D4000CE010E94EA0D807E90E08E159F0539F04D
:101D50000E94490C601B693C60F381E001C080E097
:101D6000DF91CF911F910F91FF90EF9008950F9306
:101D70001F93CF93DF93EC01162F6EE00E94EA0DC4
:101D8000807E803221F5103211F16BE2CE010E948B
:101D9000EA0D082F007486FD06C020E440E46BE2E3
:101DA000CE010E94640E20E440E46CE2CE010E9469
:101DB000640E60E6CE010E948C0E811116C00111E6
:101DC00006C020E040E46BE2CE010E94640E20E0F9
:101DD00040E46CE2CE010E94640E612FCE01DF91DF
:101DE000CF911F910F910C948C0E81E0DF91CF91D8
:101DF0001F910F910895FC01638B0C94B70ECF9245
:101E0000DF92EF92FF920F931F93CF93DF93342FC4
:101E10003370313009F43FC008F466C0323009F045
:101E2000AAC0062F10E0F8013197EE30F10508F056
:101E3000A2C0EC5CFF4F0C94BE16C4E8D6EF23E9B9
:101E400087C0C4E8D6EF29E883C0C3E8D5EE27E809
:101E50007FC0C4E8D6EF25E87BC0C4E8D6EF05C054
:101E6000C3E8D5EE02C0C1E8D3ED24E871C0C4E8F0
:101E7000D6EF02C0C3E8D5EE21E86AC0C4E8D6EFC9
:101E800002C0C3E8D5EE20E863C0C1E8D1ED2AC0A6
:101E9000C0E8D0EC27C0C62ED12CF6013197EE3029
:101EA000F10508F068C0EE5BFF4F0C94BE16C4E865
:101EB000D6EF27E64DC0C4E8D6EF23E549C0C3E816
:101EC000D5EE2EE445C0C4E8D6EF42C0C3E8D5EE57
:101ED00023E43EC0C3E8D5EE27C0C3E8D5EE28C052
:101EE000C1E8DAEC20E034C0062F10E0F8013697A4
:101EF000E930F10508F03FC0E05BFF4F0C94BE16DF
:101F0000C4E8D6EF29E424C0C7E8DFEF24EC20C002
:101F1000C4E8D6EF05C0C3E8D5EE02C0C1E8D3EDF2
:101F200024E416C0C4E8D6EF21E412C0C4E8D6EF1A
:101F300020E40EC0C2E8D9EDD5CFC4E8D6EF27EA39
:101F400007C0C7E8DFEF2FE303C0C1E8D3ED28E106
:101F500042FDCF778C01422F6AE20E940C0E4D2F7A
:101F600069E2C8010E940C0E4C2F68E2C8010E9471
:101F70000C0E80E001C081E0DF91CF911F910F91A5
:101F8000FF90EF90DF90CF9008950F931F93CF9322
:101F9000DF9300D000D0CDB7DEB74130B1F40C8371
:101FA0001B83890122273327502F5C71402F4370F8
:101FB00078E0579F400D112448604A8355E01695FC
:101FC00007955A95E1F709830DC0A80123E05695BE
:101FD00047952A95E1F749830295000F007E0A8311
:101FE0001C821B8224E0AE014F5F5F4F0E942E0EC9
:101FF0000F900F900F900F90DF91CF911F910F9145
:1020000008950F931F93CF93DF9300D000D0CDB7E7
:10201000DEB7E62FF42FA901662777270C831B83F1
:10202000F13081F4342F3C71242F2370F8E03F9F6E
:10203000200D112428602A8335E0569547953A955E
:10204000E1F70AC0242F2295220F207E2A8323E065
:10205000569547952A95E1F7498324E0AE014F5FF5
:102060005F4F6E2F0E942E0E0F900F900F900F90CB
:10207000DF91CF911F910F9108950F931F93CF93ED
:10208000DF93EC0100E010E0980141E060E20E9483
:10209000011000E010E0980141E064E2CE010E94EE
:1020A000011000E010E0980141E060E0CE010E94E4
:1020B000011000E010E0980140E064E0CE010E94D1
:1020C000011000E010E0980141E068E0CE010E94BC
:1020D000011000E010E0980140E060E1CE010E94B4
:1020E000011000E010E0980141E064E1CE010E949F
:1020F000011000E010E0980140E068E1CE010E948C
:10210000011010E340E0612FCE010E940C0E60E14F
:10211000610F40E0CE010E940C0E60E2610F40E0D2
:10212000CE010E940C0E1F5F1E3361F740E060E697
:10213000CE010E940C0E40E060E7CE01DF91CF910E
:102140001F910F910C940C0EEF92FF920F931F931F
:10215000CF93DF93EC01062FF42EE22E0E94CE0DDA
:1021600080E48B8B60E8CE010E94B70E182F882385
:1021700041F065EA71E085EE92E00E94B412812F91
:102180005CC06DE771E085EE92E00E94B4124E2DC6
:102190006F2DCE010E94FF0E882339F061E671E0B9
:1021A00085EE92E00E94B41247C064E471E085EECF
:1021B00092E00E94B412CE010E943D1043E06BE217
:1021C000CE010E940C0E4CE36CE0CE010E940C0E7E
:1021D00040E06DE0CE010E940C0E002351F0033070
:1021E00019F524E644E660E6CE010E94640E20E67E
:1021F00007C024E044E660E6CE010E94640E20E0C1
:1022000040E660E7CE010E94640E6B89CE010E9419
:10221000B70EC82F882381F062E071E085EE92E06E
:102220000E94B4128C2F09C068E271E085EE92E042
:102230000E94B41281E001C080E0DF91CF911F9134
:102240000F91FF90EF900895FF920F931F93CF93FC
:10225000DF93EC01F62EAC014A5F5F4F65E06F0D36
:102260002D810E942E0E8E85813019F48D8180641F
:102270008D8364E06F0D4D81CE010E940C0E0981AB
:102280001A812B813C8148816F2DCE010E94C50FA0
:10229000DF91CF911F910F91FF9008958F929F92A0
:1022A000AF92BF92CF92DF92EF92FF921F93CF93A4
:1022B000DF9300D01F92CDB7DEB74C016B01809148
:1022C000D0019091D101A091D20189839A83AB83EF
:1022D000FB011082CE0101967C015E0194E0A90E03
:1022E000B11CF70111917F01612FC4010E94EA0D19
:1022F000982F987083FD04C01F5FF601108304C0FF
:10230000EA14FB0471F792E0892F0F900F900F9061
:10231000DF91CF911F91FF90EF90DF90CF90BF9012
:10232000AF909F908F900895CF93DF93EC01862F0D
:102330006A8B61E00E94C20B61E08A890E94860B71
:1023400086E893E0998B888BDF91CF910895FF9277
:102350000F931F93CF93DF93EC01162F042FF22ED0
:102360000E9412162F2D402F612FCE010E94A41023
:1023700091E0811101C090E0892FDF91CF911F91F1
:102380000F91FF900895BF92CF92DF92EF92FF924C
:102390000F931F93CF93DF931F92CDB7DEB78C01BE
:1023A0000E94550C6B017C01BE016F5F7F4FC8011D
:1023B0000E944E11B82E0E94550CDC01CB018C19E5
:1023C0009D09AE09BF0922E0B21206C0843C9940C3
:1023D000A105B10548F331C0843C9940A105B10580
:1023E00060F56981C8010E9424116981615028E06B
:1023F00048E0C8010E94640E0E94550C6B017C01EC
:1024000069816150C8010E94EA0DB82E0E94550CE6
:10241000DC01CB018C199D09AE09BF09B3FE06C0D2
:10242000843C9940A105B10558F309C0843C99400A
:10243000A105B10520F480E003C086E001C087E07B
:102440000F90DF91CF911F910F91FF90EF90DF9050
:10245000CF90BF900895EF92FF920F93FC014183BC
:10246000528363837483168620830583F701DC011E
:1024700016969C01225F3F4F41914D93A217B307DF
:10248000D9F70F91FF90EF900C94C311CF92DF9288
:10249000EF92FF920F931F93CF93DF936C017A011A
:1024A0008B01C0E0D0E0CE15DF0581F0D8016D9141
:1024B0008D01D601ED91FC910190F081E02DC601D6
:1024C0000995892B11F02196EECF7E01C701DF918E
:1024D000CF911F910F91FF90EF90DF90CF900895D3
:1024E0006115710579F0FB0101900020E9F7319742
:1024F000AF01461B570BDC01ED91FC910280F3818B
:10250000E02D099480E090E00895EF92FF920F9300
:102510001F93CF93DF938C017B01C0E0D0E0F701E4
:10252000EC0FFD1F6491662361F0D801ED91FC91E1
:102530000190F081E02DC8010995892B11F02196B9
:10254000EECFCE01DF91CF911F910F91FF90EF90D1
:102550000895DC01ED91FC910190F081E02D09944A
:1025600062E872E00C9470120F931F93CF93DF9385
:10257000EC010E9485128C01CE010E94B012800FE6
:10258000911FDF91CF911F910F9108950F931F938A
:10259000CF93DF93EC010E9470128C01CE010E9458
:1025A000B012800F911FDF91CF911F910F9108956D
:1025B0008F929F92AF92BF92EF92FF920F931F93D1
:1025C000CF93DF93CDB7DEB7A1970FB6F894DEBFF8
:1025D0000FBECDBF7C01FA01CB0119A2223008F455
:1025E0002AE08E010F5D1F4F822E912CA12CB12C61
:1025F000BF01A50194010E949C16F901CA01015076
:1026000011096A3014F4605D01C0695CD8016C93F3
:10261000232B242B252B61F7B801C7010E947012D0
:10262000A1960FB6F894DEBF0FBECDBFDF91CF915C
:102630001F910F91FF90EF90BF90AF909F908F9060
:102640000895CF92DF92EF92FF920F931F93CF9353
:10265000DF932115310581F4DC01ED91FC910190AE
:10266000F081E02D642FDF91CF911F910F91FF90AA
:10267000EF90DF90CF9009942A30310501F577FF74
:102680001DC06A017B01EC016DE20E94A9128C0160
:1026900044275527BA014C195D096E097F092AE0C4
:1026A000CE010E94D812800F911FDF91CF911F9110
:1026B0000F91FF90EF90DF90CF9008952AE0DF9187
:1026C000CF911F910F91FF90EF90DF90CF900C94DE
:1026D000D8129A01AB01770F660B770B0C9421137C
:1026E0000F931F93CF93DF93EC010E9469138C012A
:1026F000CE010E94B012800F911FDF91CF911F91E8
:102700000F9108950F931F93CF93DF93EC010E94D5
:10271000490C688779878A879B87E881F9810484D7
:10272000F585E02DCE01099597FF17C00E94490C51
:10273000088519852A853B85DC01CB01801B910B1F
:10274000A20BB30B0C811D812E813F818017910755
:10275000A207B30710F38FEF9FEFDF91CF911F9187
:102760000F910895FF920F931F93CF93DF93EC0186
:102770008B01F42ECE010E94821397FD2DC08D3265
:10278000910519F19C01205331092A30310520F1BE
:10279000FF2019F08E329105D1F001301105D1F0F2
:1027A0000230110551F48D30910539F024F4099768
:1027B000029718F00FC0809769F4E881F9810284CC
:1027C000F385E02DCE010995D5CF8DE201C08EE2D3
:1027D00090E002C08FEF9FEFDF91CF911F910F919B
:1027E000FF900895BF92CF92DF92EF92FF920F93E6
:1027F0001F93CF93DF938C01C42F40E00E94B2134C
:10280000FC0197FD47C0C12CD12C7601B12C0C2EB8
:10281000000CDD0BEC17FD0709F1ED32F105E1F0DD
:10282000CF01C0970A97D0F4AAE0B0E0A7019601C3
:102830000E94C4166F01FF0FEE08FF08DC01CB01F8
:102840008C0D9D1DAE1DBF1D6C017D0120E3C21AC4
:10285000D108E108F10802C0BB24B394D801ED917E
:10286000FC910284F385E02DC8010995C8010E94FE
:102870008213FC01C0970A9768F2CE17DF0751F266
:10288000BB2061F066277727CB016C197D098E0983
:102890009F0906C060E070E0CB0102C0C701B6012D
:1028A000DF91CF911F910F91FF90EF90DF90CF902C
:1028B000BF9008951F920F920FB60F9211242F937D
:1028C0008F939F93EF93FF93E091F502F091F602BF
:1028D0008081E091FB02F091FC0282FD12C09081A8
:1028E0008091FE028F5F8F732091FF02821751F05B
:1028F000E091FE02F0E0EB51FD4F958F8093FE02D8
:1029000001C08081FF91EF919F918F912F910F9046
:102910000FBE0F901F9018951F920F920FB60F9237
:1029200011242F933F934F935F936F937F938F93D4
:102930009F93AF93BF93EF93FF9385EE92E00E9436
:102940001C15FF91EF91BF91AF919F918F917F9156
:102950006F915F914F913F912F910F900FBE0F900C
:102960001F901895E5EEF2E01382128288EE93E054
:10297000A0E0B0E084839583A683B78385E992E0E5
:102980009183808385EC90E09587848784EC90E048
:102990009787868780EC90E0918B808B81EC90E02C
:1029A000938B828B82EC90E0958B848B86EC90E00D
:1029B000978B868B118E128E138E148E0895FC01C8
:1029C000918D228D892F90E0805C9F4F821B910911
:1029D0008F7399270895FC01918D828D981731F09E
:1029E000828DE80FF11D858D90E008958FEF9FEFA8
:1029F0000895FC01918D828D981761F0828DDF0121
:102A0000A80FB11D5D968C91928D9F5F9F73928FE1
:102A100090E008958FEF9FEF0895FC01538D448D52
:102A2000252F30E0842F90E0821B930B541710F079
:102A3000CF96089501970895FC01848DDF01A80FBA
:102A4000B11DA35ABF4F2C91848D90E001968F73D6
:102A50009927848FA689B7892C93A089B1898C91F5
:102A6000837080648C93938D848D981306C0028844
:102A7000F389E02D80818F7D80830895EF92FF920E
:102A80000F931F93CF93DF93EC0181E0888F9B8D91
:102A90008C8D981305C0E889F989808185FD26C051
:102AA000F62E0B8D10E00F5F1F4F0F731127E02ED6
:102AB0008C8DE8120CC00FB607FCFACFE889F989B3
:102AC000808185FFF5CFCE010E941C15F1CF8B8D43
:102AD000FE01E80FF11DE35AFF4FF0829FB7F89413
:102AE0000B8FEA89FB89808180620AC09FB7F894C6
:102AF000EE89FF896083E889F98980818370806429
:102B000080839FBF81E090E0DF91CF911F910F9173
:102B1000FF90EF900895CF93DF93EC01888D882389
:102B2000C9F0EA89FB89808185FD05C0A889B9893A
:102B30008C9186FD0FC00FB607FCF5CF808185FF15
:102B4000F2CFA889B9898C9185FFEDCFCE010E9483
:102B50001C15E7CFDF91CF910895CF92DF92EF92CE
:102B6000FF921F93CF93DF93EC016A017B01122F39
:102B7000E889F98982E080834115514E610571052C
:102B8000B1F060E079E08DE390E0A70196010E944A
:102B90009C16DA01C9010197A109B109B695A7955B
:102BA000979587959C01211580E13807A8F0E88961
:102BB000F989108260E874E88EE190E0A70196013F
:102BC0000E949C16DA01C9010197A109B109B695C5
:102BD000A795979587959C01EC85FD853083EE85BB
:102BE000FF852083188EEC89FD891083EA89FB8993
:102BF000808180618083EA89FB898081886080830D
:102C0000EA89FB89808180688083EA89FB898081E9
:102C10008F7D8083DF91CF911F91FF90EF90DF90A8
:102C2000CF900895CF93CFB7F89480918503811109
:102C300027C0E4EEF0E08491E0EDF0E09491E82F1D
:102C4000F0E0EE0FFF1FE850FF4FA591B491EC911B
:102C5000E92321F461E08AE00E94C20B61E08AE08E
:102C60000E94860B8CB580618CBD8CB580648CBD58
:102C700061E08DE00E94860B61E08BE00E94860B94
:102C8000809185038F5F80938503CFBFCF91089597
:102C9000F8940C94F216E89409C097FB3EF49095D2
:102CA0008095709561957F4F8F4F9F4F9923A9F025
:102CB000F92F96E9BB279395F695879577956795B4
:102CC000B795F111F8CFFAF4BB0F11F460FF1BC0F8
:102CD0006F5F7F4F8F4F9F4F16C0882311F096E98B
:102CE00011C0772321F09EE8872F762F05C0662339
:102CF00071F096E8862F70E060E02AF09A95660FF2
:102D0000771F881FDAF7880F9695879597F90895AA
:102D100097FB072E16F4009407D077FD09D00E9488
:102D2000CF1607FC05D03EF4909581959F4F0895EE
:102D3000709561957F4F0895A1E21A2EAA1BBB1BC7
:102D4000FD010DC0AA1FBB1FEE1FFF1FA217B30777
:102D5000E407F50720F0A21BB30BE40BF50B661F8D
:102D6000771F881F991F1A9469F760957095809551
:102D700090959B01AC01BD01CF010895EE0FFF1F9F
:102D80000590F491E02D09940E94E316A59F900D03
:102D9000B49F900DA49F800D911D11240895AA1B2E
:102DA000BB1B51E107C0AA1FBB1FA617B70710F036
:102DB000A61BB70B881F991F5A95A9F78095909568
:102DC000BC01CD010895A29FB001B39FC001A39F94
:102DD000700D811D1124911DB29F700D811D112454
:082DE000911D0895F894FFCF46
:102DE80000000000000000000000000000000000DB
:102DF80000000000000000000000000000000000CB
:102E080000000000000000000000000000000000BA
:102E180000000000000000000000000000000000AA
:102E2800000000000000000000000000000000009A
:102E3800000000000000000000000000000000008A
:102E48000000000000000000FFFFFFFFFFFFFFFF82
:102E5800FF83FF010000003D020000D602FFFFFFD4
:102E6800FFFFFFFFFF0000030200000000C8000092
:102E780000C8000000020C0200000000C8000000AA
:102E8800C80000000200000002000000000100016C
:102E9800000000FFFF00000100000000000000002B
:102EA800000000000000000300FF00004D0D4D0D64
:102EB800304050FF4D4350323531352063616E5FED
:102EC80073656E6420696E696369616C697A6164AF
:102ED8006F20636F6D207375636573736F21009640
:102EE800018701AF0153090902CF0601AF01530958
:102EF8001202CF0600AA01A501D6022F0221023D27
:102F0800028704E3040001F90A000001020100E35A
:102F18000587030001D20A00000001010091049313
:102F2800045000F10C000002000100C7010101007B
:102F38000000E507B307BC07950729053207160502
:102F48005B073708D806E006F00827082909500863
:102F58005C099B089309D306E5097308480A890A9E
:102F6800BA080D0A006E616E00696E66006F7666BB
:102F780000000000003E1546120D158B15DF14F9F0
:042F880014EB140032
:00000001FF
